{
  "contractName": "Collections",
  "abi": [
    {
      "inputs": [],
      "stateMutability": "nonpayable",
      "type": "constructor"
    },
    {
      "anonymous": false,
      "inputs": [
        {
          "indexed": true,
          "internalType": "address",
          "name": "_owner",
          "type": "address"
        },
        {
          "indexed": true,
          "internalType": "address",
          "name": "_approved",
          "type": "address"
        },
        {
          "indexed": true,
          "internalType": "uint256",
          "name": "_tokenId",
          "type": "uint256"
        }
      ],
      "name": "Approval",
      "type": "event"
    },
    {
      "anonymous": false,
      "inputs": [
        {
          "indexed": true,
          "internalType": "address",
          "name": "_from",
          "type": "address"
        },
        {
          "indexed": true,
          "internalType": "address",
          "name": "_to",
          "type": "address"
        },
        {
          "indexed": true,
          "internalType": "uint256",
          "name": "_tokenId",
          "type": "uint256"
        }
      ],
      "name": "Transfer",
      "type": "event"
    },
    {
      "inputs": [
        {
          "internalType": "address",
          "name": "_to",
          "type": "address"
        },
        {
          "internalType": "uint256",
          "name": "tokenId",
          "type": "uint256"
        }
      ],
      "name": "approve",
      "outputs": [],
      "stateMutability": "nonpayable",
      "type": "function"
    },
    {
      "inputs": [
        {
          "internalType": "address",
          "name": "_owner",
          "type": "address"
        }
      ],
      "name": "balanceOf",
      "outputs": [
        {
          "internalType": "uint256",
          "name": "",
          "type": "uint256"
        }
      ],
      "stateMutability": "view",
      "type": "function",
      "constant": true
    },
    {
      "inputs": [],
      "name": "baseURI",
      "outputs": [
        {
          "internalType": "string",
          "name": "",
          "type": "string"
        }
      ],
      "stateMutability": "view",
      "type": "function",
      "constant": true
    },
    {
      "inputs": [
        {
          "internalType": "uint256",
          "name": "",
          "type": "uint256"
        }
      ],
      "name": "collections",
      "outputs": [
        {
          "internalType": "string",
          "name": "hash",
          "type": "string"
        },
        {
          "internalType": "string",
          "name": "fileName",
          "type": "string"
        },
        {
          "internalType": "string",
          "name": "fileType",
          "type": "string"
        },
        {
          "internalType": "string",
          "name": "date",
          "type": "string"
        }
      ],
      "stateMutability": "view",
      "type": "function",
      "constant": true
    },
    {
      "inputs": [],
      "name": "name",
      "outputs": [
        {
          "internalType": "string",
          "name": "",
          "type": "string"
        }
      ],
      "stateMutability": "view",
      "type": "function",
      "constant": true
    },
    {
      "inputs": [
        {
          "internalType": "uint256",
          "name": "_tokenId",
          "type": "uint256"
        }
      ],
      "name": "ownerOf",
      "outputs": [
        {
          "internalType": "address",
          "name": "",
          "type": "address"
        }
      ],
      "stateMutability": "view",
      "type": "function",
      "constant": true
    },
    {
      "inputs": [
        {
          "internalType": "bytes4",
          "name": "interfaceId",
          "type": "bytes4"
        }
      ],
      "name": "supportsInterface",
      "outputs": [
        {
          "internalType": "bool",
          "name": "",
          "type": "bool"
        }
      ],
      "stateMutability": "view",
      "type": "function",
      "constant": true
    },
    {
      "inputs": [],
      "name": "symbol",
      "outputs": [
        {
          "internalType": "string",
          "name": "",
          "type": "string"
        }
      ],
      "stateMutability": "view",
      "type": "function",
      "constant": true
    },
    {
      "inputs": [
        {
          "internalType": "uint256",
          "name": "index",
          "type": "uint256"
        }
      ],
      "name": "tokenByIndex",
      "outputs": [
        {
          "internalType": "uint256",
          "name": "",
          "type": "uint256"
        }
      ],
      "stateMutability": "view",
      "type": "function",
      "constant": true
    },
    {
      "inputs": [
        {
          "internalType": "address",
          "name": "owner",
          "type": "address"
        },
        {
          "internalType": "uint256",
          "name": "index",
          "type": "uint256"
        }
      ],
      "name": "tokenOfOwnerByIndex",
      "outputs": [
        {
          "internalType": "uint256",
          "name": "",
          "type": "uint256"
        }
      ],
      "stateMutability": "view",
      "type": "function",
      "constant": true
    },
    {
      "inputs": [
        {
          "internalType": "uint256",
          "name": "tokenId",
          "type": "uint256"
        }
      ],
      "name": "tokenURI",
      "outputs": [
        {
          "internalType": "string",
          "name": "",
          "type": "string"
        }
      ],
      "stateMutability": "view",
      "type": "function",
      "constant": true
    },
    {
      "inputs": [],
      "name": "totalSupply",
      "outputs": [
        {
          "internalType": "uint256",
          "name": "",
          "type": "uint256"
        }
      ],
      "stateMutability": "view",
      "type": "function",
      "constant": true
    },
    {
      "inputs": [
        {
          "internalType": "address",
          "name": "_from",
          "type": "address"
        },
        {
          "internalType": "address",
          "name": "_to",
          "type": "address"
        },
        {
          "internalType": "uint256",
          "name": "_tokenId",
          "type": "uint256"
        }
      ],
      "name": "transferFrom",
      "outputs": [],
      "stateMutability": "nonpayable",
      "type": "function"
    },
    {
      "inputs": [
        {
          "components": [
            {
              "internalType": "string",
              "name": "hash",
              "type": "string"
            },
            {
              "internalType": "string",
              "name": "fileName",
              "type": "string"
            },
            {
              "internalType": "string",
              "name": "fileType",
              "type": "string"
            },
            {
              "internalType": "string",
              "name": "date",
              "type": "string"
            }
          ],
          "internalType": "struct Collections.Collection",
          "name": "_collection",
          "type": "tuple"
        },
        {
          "internalType": "string",
          "name": "tokenURI",
          "type": "string"
        }
      ],
      "name": "mint",
      "outputs": [],
      "stateMutability": "nonpayable",
      "type": "function"
    }
  ],
  "bytecode": "0x60806040523480156200001157600080fd5b506040518060400160405280600b81526020017f436f6c6c656374696f6e730000000000000000000000000000000000000000008152506040518060400160405280600b81526020017f434f4c4c454354494f4e530000000000000000000000000000000000000000008152508181620000b17f01ffc9a7a5cef8baa21ed3c5c0d7e23accb804b619e9333b597f47a0d84076e26200022a60201b60201c565b620001047f13b182f4c0e5b2efbac0efe6cf6d756c8b89f4b79c5707a043ed9ea740574ee97f7feaf19471f34a12a7eaf32d5f3090aa2260ea8624dc8a138e74e0bf0f623076186200022a60201b60201c565b81600190805190602001906200011c92919062000301565b5080600290805190602001906200013592919062000301565b505050620001ad7f22c82707ba960a14c7592ffb6b8cfaa073fed0048a84cc7fa41f6b5bd8e7f2e47f3a6eb71757dfc6e784c1459d26270140c2c147d95ca985c80026fc5301c3eca17f8a7e378434598edc36d108689a030cbc9d7d465de4f74c71bae1028eed6a881b18186200022a60201b60201c565b620002227f8230223f691b981717299fae9549350a0d894555723531f02108b1f522c1a7977f6da5e1284143cdd2d15038a59bde3be031250f00291d64494c12d967b3a4e0c37fc53637662700e6c65104059db8bba34439e0c32483ab7c34e3ccae52c739549518186200022a60201b60201c565b505062000498565b63ffffffff60e01b817bffffffffffffffffffffffffffffffffffffffffffffffffffffffff19160362000295576040517f08c379a00000000000000000000000000000000000000000000000000000000081526004016200028c9062000412565b60405180910390fd5b6001600080837bffffffffffffffffffffffffffffffffffffffffffffffffffffffff19167bffffffffffffffffffffffffffffffffffffffffffffffffffffffff1916815260200190815260200160002060006101000a81548160ff02191690831515021790555050565b8280546200030f9062000463565b90600052602060002090601f0160209004810192826200033357600085556200037f565b82601f106200034e57805160ff19168380011785556200037f565b828001600101855582156200037f579182015b828111156200037e57825182559160200191906001019062000361565b5b5090506200038e919062000392565b5090565b5b80821115620003ad57600081600090555060010162000393565b5090565b600082825260208201905092915050565b7f696e76616c696420696e74657266616365207265717565737400000000000000600082015250565b6000620003fa601983620003b1565b91506200040782620003c2565b602082019050919050565b600060208201905081810360008301526200042d81620003eb565b9050919050565b7f4e487b7100000000000000000000000000000000000000000000000000000000600052602260045260246000fd5b600060028204905060018216806200047c57607f821691505b60208210810362000492576200049162000434565b5b50919050565b61293780620004a86000396000f3fe608060405234801561001057600080fd5b50600436106100ea5760003560e01c80636352211e1161008c57806395d89b411161006657806395d89b4114610271578063c87b56dd1461028f578063e73c4af1146102bf578063fdbda0ec146102db576100ea565b80636352211e146101f35780636c0360eb1461022357806370a0823114610241576100ea565b806318160ddd116100c857806318160ddd1461015957806323b872dd146101775780632f745c59146101935780634f6ccce7146101c3576100ea565b806301ffc9a7146100ef57806306fdde031461011f578063095ea7b31461013d575b600080fd5b6101096004803603810190610104919061190f565b61030e565b6040516101169190611957565b60405180910390f35b610127610375565b6040516101349190611a0b565b60405180910390f35b61015760048036038101906101529190611ac1565b610407565b005b6101616105a2565b60405161016e9190611b10565b60405180910390f35b610191600480360381019061018c9190611b2b565b6105af565b005b6101ad60048036038101906101a89190611ac1565b6105d2565b6040516101ba9190611b10565b60405180910390f35b6101dd60048036038101906101d89190611b7e565b610682565b6040516101ea9190611b10565b60405180910390f35b61020d60048036038101906102089190611b7e565b6106f3565b60405161021a9190611bba565b60405180910390f35b61022b6107a4565b6040516102389190611a0b565b60405180910390f35b61025b60048036038101906102569190611bd5565b610836565b6040516102689190611b10565b60405180910390f35b6102796108f4565b6040516102869190611a0b565b60405180910390f35b6102a960048036038101906102a49190611b7e565b610986565b6040516102b69190611a0b565b60405180910390f35b6102d960048036038101906102d49190611e29565b610af8565b005b6102f560048036038101906102f09190611b7e565b610ca4565b6040516103059493929190611ea1565b60405180910390f35b6000806000837bffffffffffffffffffffffffffffffffffffffffffffffffffffffff19167bffffffffffffffffffffffffffffffffffffffffffffffffffffffff1916815260200190815260200160002060009054906101000a900460ff169050919050565b60606001805461038490611f31565b80601f01602080910402602001604051908101604052809291908181526020018280546103b090611f31565b80156103fd5780601f106103d2576101008083540402835291602001916103fd565b820191906000526020600020905b8154815290600101906020018083116103e057829003601f168201915b5050505050905090565b6000610412826106f3565b90508073ffffffffffffffffffffffffffffffffffffffff168373ffffffffffffffffffffffffffffffffffffffff1603610482576040517f08c379a000000000000000000000000000000000000000000000000000000000815260040161047990611fd4565b60405180910390fd5b8073ffffffffffffffffffffffffffffffffffffffff163373ffffffffffffffffffffffffffffffffffffffff16146104f0576040517f08c379a00000000000000000000000000000000000000000000000000000000081526004016104e790612066565b60405180910390fd5b826005600084815260200190815260200160002060006101000a81548173ffffffffffffffffffffffffffffffffffffffff021916908373ffffffffffffffffffffffffffffffffffffffff160217905550818373ffffffffffffffffffffffffffffffffffffffff168273ffffffffffffffffffffffffffffffffffffffff167f8c5be1e5ebec7d5bd14f71427d1e84f3dd0314c0f7b2291e5b200ac8c7c3b92560405160405180910390a4505050565b6000600880549050905090565b6105b93382610f04565b6105c257600080fd5b6105cd838383610f93565b505050565b60006105dd83610836565b821061061e576040517f08c379a0000000000000000000000000000000000000000000000000000000008152600401610615906120d2565b60405180910390fd5b600a60008473ffffffffffffffffffffffffffffffffffffffff1673ffffffffffffffffffffffffffffffffffffffff168152602001908152602001600020828154811061066f5761066e6120f2565b5b9060005260206000200154905092915050565b600061068c6105a2565b82106106cd576040517f08c379a00000000000000000000000000000000000000000000000000000000081526004016106c49061216d565b60405180910390fd5b600882815481106106e1576106e06120f2565b5b90600052602060002001549050919050565b6000806003600084815260200190815260200160002060009054906101000a900473ffffffffffffffffffffffffffffffffffffffff169050600073ffffffffffffffffffffffffffffffffffffffff168173ffffffffffffffffffffffffffffffffffffffff160361079b576040517f08c379a0000000000000000000000000000000000000000000000000000000008152600401610792906121ff565b60405180910390fd5b80915050919050565b6060600780546107b390611f31565b80601f01602080910402602001604051908101604052809291908181526020018280546107df90611f31565b801561082c5780601f106108015761010080835404028352916020019161082c565b820191906000526020600020905b81548152906001019060200180831161080f57829003601f168201915b5050505050905090565b60008073ffffffffffffffffffffffffffffffffffffffff168273ffffffffffffffffffffffffffffffffffffffff16036108a6576040517f08c379a000000000000000000000000000000000000000000000000000000000815260040161089d906121ff565b60405180910390fd5b6108ed600460008473ffffffffffffffffffffffffffffffffffffffff1673ffffffffffffffffffffffffffffffffffffffff1681526020019081526020016000206111b8565b9050919050565b60606002805461090390611f31565b80601f016020809104026020016040519081016040528092919081815260200182805461092f90611f31565b801561097c5780601f106109515761010080835404028352916020019161097c565b820191906000526020600020905b81548152906001019060200180831161095f57829003601f168201915b5050505050905090565b6060610991826111c6565b6109d0576040517f08c379a00000000000000000000000000000000000000000000000000000000081526004016109c790612291565b60405180910390fd5b60006006600084815260200190815260200160002080546109f090611f31565b80601f0160208091040260200160405190810160405280929190818152602001828054610a1c90611f31565b8015610a695780601f10610a3e57610100808354040283529160200191610a69565b820191906000526020600020905b815481529060010190602001808311610a4c57829003601f168201915b505050505090506000610a7a6107a4565b90506000815103610a8f578192505050610af3565b600082511115610ac4578082604051602001610aac9291906122ed565b60405160208183030381529060405292505050610af3565b80610ace85611238565b604051602001610adf9291906122ed565b604051602081830303815290604052925050505b919050565b600d8260000151604051610b0c9190612311565b908152602001604051809103902060009054906101000a900460ff1615610b68576040517f08c379a0000000000000000000000000000000000000000000000000000000008152600401610b5f9061239a565b60405180910390fd5b600c6040518060800160405280846000015181526020018460200151815260200184604001518152602001846060015181525090806001815401808255809150506001900390600052602060002090600402016000909190919091506000820151816000019080519060200190610be0929190611800565b506020820151816001019080519060200190610bfd929190611800565b506040820151816002019080519060200190610c1a929190611800565b506060820151816003019080519060200190610c37929190611800565b50505060006001600c80549050610c4e91906123e9565b9050610c5a33826113aa565b610c6481836113cb565b6001600d8460000151604051610c7a9190612311565b908152602001604051809103902060006101000a81548160ff021916908315150217905550505050565b600c8181548110610cb457600080fd5b9060005260206000209060040201600091509050806000018054610cd790611f31565b80601f0160208091040260200160405190810160405280929190818152602001828054610d0390611f31565b8015610d505780601f10610d2557610100808354040283529160200191610d50565b820191906000526020600020905b815481529060010190602001808311610d3357829003601f168201915b505050505090806001018054610d6590611f31565b80601f0160208091040260200160405190810160405280929190818152602001828054610d9190611f31565b8015610dde5780601f10610db357610100808354040283529160200191610dde565b820191906000526020600020905b815481529060010190602001808311610dc157829003601f168201915b505050505090806002018054610df390611f31565b80601f0160208091040260200160405190810160405280929190818152602001828054610e1f90611f31565b8015610e6c5780601f10610e4157610100808354040283529160200191610e6c565b820191906000526020600020905b815481529060010190602001808311610e4f57829003601f168201915b505050505090806003018054610e8190611f31565b80601f0160208091040260200160405190810160405280929190818152602001828054610ead90611f31565b8015610efa5780601f10610ecf57610100808354040283529160200191610efa565b820191906000526020600020905b815481529060010190602001808311610edd57829003601f168201915b5050505050905084565b6000610f0f826111c6565b610f4e576040517f08c379a0000000000000000000000000000000000000000000000000000000008152600401610f4590612469565b60405180910390fd5b6000610f59836106f3565b90508073ffffffffffffffffffffffffffffffffffffffff168473ffffffffffffffffffffffffffffffffffffffff161491505092915050565b600073ffffffffffffffffffffffffffffffffffffffff168273ffffffffffffffffffffffffffffffffffffffff1603611002576040517f08c379a0000000000000000000000000000000000000000000000000000000008152600401610ff9906124fb565b60405180910390fd5b8273ffffffffffffffffffffffffffffffffffffffff16611022826106f3565b73ffffffffffffffffffffffffffffffffffffffff1614611078576040517f08c379a000000000000000000000000000000000000000000000000000000000815260040161106f9061258d565b60405180910390fd5b6110bf600460008573ffffffffffffffffffffffffffffffffffffffff1673ffffffffffffffffffffffffffffffffffffffff16815260200190815260200160002061143f565b611106600460008473ffffffffffffffffffffffffffffffffffffffff1673ffffffffffffffffffffffffffffffffffffffff168152602001908152602001600020611462565b816003600083815260200190815260200160002060006101000a81548173ffffffffffffffffffffffffffffffffffffffff021916908373ffffffffffffffffffffffffffffffffffffffff160217905550808273ffffffffffffffffffffffffffffffffffffffff168473ffffffffffffffffffffffffffffffffffffffff167fddf252ad1be2c89b69c2b068fc378daa952ba7f163c4a11628f55a4df523b3ef60405160405180910390a4505050565b600081600001549050919050565b6000806003600084815260200190815260200160002060009054906101000a900473ffffffffffffffffffffffffffffffffffffffff169050600073ffffffffffffffffffffffffffffffffffffffff168173ffffffffffffffffffffffffffffffffffffffff161415915050919050565b60606000820361127f576040518060400160405280600181526020017f300000000000000000000000000000000000000000000000000000000000000081525090506113a5565b600082905060005b600082146112b157808061129a906125ad565b915050600a826112aa9190612624565b9150611287565b60008167ffffffffffffffff8111156112cd576112cc611c07565b5b6040519080825280601f01601f1916602001820160405280156112ff5781602001600182028036833780820191505090505b509050600060018361131191906123e9565b90508593505b6000841461139d57600a8461132c9190612655565b60306113389190612686565b60f81b828280611347906126dc565b93508151811061135a576113596120f2565b5b60200101907effffffffffffffffffffffffffffffffffffffffffffffffffffffffffffff1916908160001a905350600a846113969190612624565b9350611317565b819450505050505b919050565b6113b48282611485565b6113bd81611636565b6113c7828261167f565b5050565b6113d4826111c6565b611413576040517f08c379a000000000000000000000000000000000000000000000000000000000815260040161140a90612777565b60405180910390fd5b8060066000848152602001908152602001600020908051906020019061143a929190611800565b505050565b6114576001826000015461174390919063ffffffff16565b816000018190555050565b61147a600182600001546117a290919063ffffffff16565b816000018190555050565b600073ffffffffffffffffffffffffffffffffffffffff168273ffffffffffffffffffffffffffffffffffffffff16036114f4576040517f08c379a00000000000000000000000000000000000000000000000000000000081526004016114eb90612809565b60405180910390fd5b6114fd816111c6565b1561153d576040517f08c379a000000000000000000000000000000000000000000000000000000000815260040161153490612809565b60405180910390fd5b816003600083815260200190815260200160002060006101000a81548173ffffffffffffffffffffffffffffffffffffffff021916908373ffffffffffffffffffffffffffffffffffffffff1602179055506115d6600460008473ffffffffffffffffffffffffffffffffffffffff1673ffffffffffffffffffffffffffffffffffffffff168152602001908152602001600020611462565b808273ffffffffffffffffffffffffffffffffffffffff16600073ffffffffffffffffffffffffffffffffffffffff167fddf252ad1be2c89b69c2b068fc378daa952ba7f163c4a11628f55a4df523b3ef60405160405180910390a45050565b6008805490506009600083815260200190815260200160002081905550600881908060018154018082558091505060019003906000526020600020016000909190919091505550565b600a60008373ffffffffffffffffffffffffffffffffffffffff1673ffffffffffffffffffffffffffffffffffffffff16815260200190815260200160002080549050600b600083815260200190815260200160002081905550600a60008373ffffffffffffffffffffffffffffffffffffffff1673ffffffffffffffffffffffffffffffffffffffff1681526020019081526020016000208190806001815401808255809150506001900390600052602060002001600090919091909150555050565b600082821115611788576040517f08c379a000000000000000000000000000000000000000000000000000000000815260040161177f90612875565b60405180910390fd5b6000828461179691906123e9565b90508091505092915050565b60008082846117b19190612686565b9050838110156117f6576040517f08c379a00000000000000000000000000000000000000000000000000000000081526004016117ed906128e1565b60405180910390fd5b8091505092915050565b82805461180c90611f31565b90600052602060002090601f01602090048101928261182e5760008555611875565b82601f1061184757805160ff1916838001178555611875565b82800160010185558215611875579182015b82811115611874578251825591602001919060010190611859565b5b5090506118829190611886565b5090565b5b8082111561189f576000816000905550600101611887565b5090565b6000604051905090565b600080fd5b600080fd5b60007fffffffff0000000000000000000000000000000000000000000000000000000082169050919050565b6118ec816118b7565b81146118f757600080fd5b50565b600081359050611909816118e3565b92915050565b600060208284031215611925576119246118ad565b5b6000611933848285016118fa565b91505092915050565b60008115159050919050565b6119518161193c565b82525050565b600060208201905061196c6000830184611948565b92915050565b600081519050919050565b600082825260208201905092915050565b60005b838110156119ac578082015181840152602081019050611991565b838111156119bb576000848401525b50505050565b6000601f19601f8301169050919050565b60006119dd82611972565b6119e7818561197d565b93506119f781856020860161198e565b611a00816119c1565b840191505092915050565b60006020820190508181036000830152611a2581846119d2565b905092915050565b600073ffffffffffffffffffffffffffffffffffffffff82169050919050565b6000611a5882611a2d565b9050919050565b611a6881611a4d565b8114611a7357600080fd5b50565b600081359050611a8581611a5f565b92915050565b6000819050919050565b611a9e81611a8b565b8114611aa957600080fd5b50565b600081359050611abb81611a95565b92915050565b60008060408385031215611ad857611ad76118ad565b5b6000611ae685828601611a76565b9250506020611af785828601611aac565b9150509250929050565b611b0a81611a8b565b82525050565b6000602082019050611b256000830184611b01565b92915050565b600080600060608486031215611b4457611b436118ad565b5b6000611b5286828701611a76565b9350506020611b6386828701611a76565b9250506040611b7486828701611aac565b9150509250925092565b600060208284031215611b9457611b936118ad565b5b6000611ba284828501611aac565b91505092915050565b611bb481611a4d565b82525050565b6000602082019050611bcf6000830184611bab565b92915050565b600060208284031215611beb57611bea6118ad565b5b6000611bf984828501611a76565b91505092915050565b600080fd5b7f4e487b7100000000000000000000000000000000000000000000000000000000600052604160045260246000fd5b611c3f826119c1565b810181811067ffffffffffffffff82111715611c5e57611c5d611c07565b5b80604052505050565b6000611c716118a3565b9050611c7d8282611c36565b919050565b600080fd5b600080fd5b600080fd5b600067ffffffffffffffff821115611cac57611cab611c07565b5b611cb5826119c1565b9050602081019050919050565b82818337600083830152505050565b6000611ce4611cdf84611c91565b611c67565b905082815260208101848484011115611d0057611cff611c8c565b5b611d0b848285611cc2565b509392505050565b600082601f830112611d2857611d27611c87565b5b8135611d38848260208601611cd1565b91505092915050565b600060808284031215611d5757611d56611c02565b5b611d616080611c67565b9050600082013567ffffffffffffffff811115611d8157611d80611c82565b5b611d8d84828501611d13565b600083015250602082013567ffffffffffffffff811115611db157611db0611c82565b5b611dbd84828501611d13565b602083015250604082013567ffffffffffffffff811115611de157611de0611c82565b5b611ded84828501611d13565b604083015250606082013567ffffffffffffffff811115611e1157611e10611c82565b5b611e1d84828501611d13565b60608301525092915050565b60008060408385031215611e4057611e3f6118ad565b5b600083013567ffffffffffffffff811115611e5e57611e5d6118b2565b5b611e6a85828601611d41565b925050602083013567ffffffffffffffff811115611e8b57611e8a6118b2565b5b611e9785828601611d13565b9150509250929050565b60006080820190508181036000830152611ebb81876119d2565b90508181036020830152611ecf81866119d2565b90508181036040830152611ee381856119d2565b90508181036060830152611ef781846119d2565b905095945050505050565b7f4e487b7100000000000000000000000000000000000000000000000000000000600052602260045260246000fd5b60006002820490506001821680611f4957607f821691505b602082108103611f5c57611f5b611f02565b5b50919050565b7f4572726f72202d20617070726f76616c20746f2063757272656e74206f776e6560008201527f7200000000000000000000000000000000000000000000000000000000000000602082015250565b6000611fbe60218361197d565b9150611fc982611f62565b604082019050919050565b60006020820190508181036000830152611fed81611fb1565b9050919050565b7f43757272656e742063616c6c6572206973206e6f7420746865206f776e65722060008201527f6f662074686520746f6b656e0000000000000000000000000000000000000000602082015250565b6000612050602c8361197d565b915061205b82611ff4565b604082019050919050565b6000602082019050818103600083015261207f81612043565b9050919050565b7f6f776e657220696e646578206f7574206f6620626f756e640000000000000000600082015250565b60006120bc60188361197d565b91506120c782612086565b602082019050919050565b600060208201905081810360008301526120eb816120af565b9050919050565b7f4e487b7100000000000000000000000000000000000000000000000000000000600052603260045260246000fd5b7f676c6f62616c20696e646578206973206f7574206f6620626f756e6400000000600082015250565b6000612157601c8361197d565b915061216282612121565b602082019050919050565b600060208201905081810360008301526121868161214a565b9050919050565b7f6f776e657220717565727920666f72206e6f6e2d6578697374656e7420746f6b60008201527f656e000000000000000000000000000000000000000000000000000000000000602082015250565b60006121e960228361197d565b91506121f48261218d565b604082019050919050565b60006020820190508181036000830152612218816121dc565b9050919050565b7f4552433732314d657461646174613a2055524920717565727920666f72206e6f60008201527f6e6578697374656e7420746f6b656e0000000000000000000000000000000000602082015250565b600061227b602f8361197d565b91506122868261221f565b604082019050919050565b600060208201905081810360008301526122aa8161226e565b9050919050565b600081905092915050565b60006122c782611972565b6122d181856122b1565b93506122e181856020860161198e565b80840191505092915050565b60006122f982856122bc565b915061230582846122bc565b91508190509392505050565b600061231d82846122bc565b915081905092915050565b7f4572726f72202d20636f6c6c656374696f6e20616c726561647920657869737460008201527f7300000000000000000000000000000000000000000000000000000000000000602082015250565b600061238460218361197d565b915061238f82612328565b604082019050919050565b600060208201905081810360008301526123b381612377565b9050919050565b7f4e487b7100000000000000000000000000000000000000000000000000000000600052601160045260246000fd5b60006123f482611a8b565b91506123ff83611a8b565b925082821015612412576124116123ba565b5b828203905092915050565b7f746f6b656e20646f6573206e6f74206578697473000000000000000000000000600082015250565b600061245360148361197d565b915061245e8261241d565b602082019050919050565b6000602082019050818103600083015261248281612446565b9050919050565b7f4572726f72202d20455243373231205472617366657220746f20746865207a6560008201527f726f206164647265737300000000000000000000000000000000000000000000602082015250565b60006124e5602a8361197d565b91506124f082612489565b604082019050919050565b60006020820190508181036000830152612514816124d8565b9050919050565b7f547279696e6720746f207472616e73666572206120746f6b656e20746865206160008201527f64647265737320646f6573206e6f74206f776e00000000000000000000000000602082015250565b600061257760338361197d565b91506125828261251b565b604082019050919050565b600060208201905081810360008301526125a68161256a565b9050919050565b60006125b882611a8b565b91507fffffffffffffffffffffffffffffffffffffffffffffffffffffffffffffffff82036125ea576125e96123ba565b5b600182019050919050565b7f4e487b7100000000000000000000000000000000000000000000000000000000600052601260045260246000fd5b600061262f82611a8b565b915061263a83611a8b565b92508261264a576126496125f5565b5b828204905092915050565b600061266082611a8b565b915061266b83611a8b565b92508261267b5761267a6125f5565b5b828206905092915050565b600061269182611a8b565b915061269c83611a8b565b9250827fffffffffffffffffffffffffffffffffffffffffffffffffffffffffffffffff038211156126d1576126d06123ba565b5b828201905092915050565b60006126e782611a8b565b9150600082036126fa576126f96123ba565b5b600182039050919050565b7f4552433732314d657461646174613a2055524920736574206f66206e6f6e657860008201527f697374656e7420746f6b656e0000000000000000000000000000000000000000602082015250565b6000612761602c8361197d565b915061276c82612705565b604082019050919050565b6000602082019050818103600083015261279081612754565b9050919050565b7f4552433732313a206d696e74696e6720746f20746865207a65726f206164647260008201527f6573730000000000000000000000000000000000000000000000000000000000602082015250565b60006127f360238361197d565b91506127fe82612797565b604082019050919050565b60006020820190508181036000830152612822816127e6565b9050919050565b7f536166654d6174683a205375627472616374696f6e204f766572666c6f770000600082015250565b600061285f601e8361197d565b915061286a82612829565b602082019050919050565b6000602082019050818103600083015261288e81612852565b9050919050565b7f536166654d6174683a204164646974696f6e204f766572666c6f770000000000600082015250565b60006128cb601b8361197d565b91506128d682612895565b602082019050919050565b600060208201905081810360008301526128fa816128be565b905091905056fea2646970667358221220bae4b8d207fddabfaa4b44e83ebe5957fc52b4e061133986b6fc7cc28361d6cf64736f6c634300080d0033",
  "immutableReferences": {},
  "source": "// SPDX-License-Identifier: MIT\npragma solidity >=0.4.22 <0.9.0;\n\nimport \"./ERC721Connector.sol\";\n\ncontract Collections is ERC721Connector {\n    // array to store nfts\n    struct Collection {\n        string hash;\n        string fileName;\n        string fileType;\n        string date;\n    }\n\n    Collection[] public collections;\n\n    mapping(string => bool) collectionExists;\n\n    function mint(Collection memory _collection, string memory tokenURI)\n        public\n    {\n        require(\n            !collectionExists[_collection.hash],\n            \"Error - collection already exists\"\n        );\n        collections.push(\n            Collection({\n                hash: _collection.hash,\n                fileName: _collection.fileName,\n                fileType: _collection.fileType,\n                date: _collection.date\n            })\n        );\n        uint256 id = collections.length - 1;\n        _mint(msg.sender, id);\n        _setTokenURI(id, tokenURI);\n        collectionExists[_collection.hash] = true;\n    }\n\n    constructor() ERC721Connector(\"Collections\", \"COLLECTIONS\") {}\n}\n",
  "sourcePath": "/Users/amaz/Work/amazonyte/contract/contracts/Collections.sol",
  "compiler": {
    "name": "solc",
    "version": "0.8.13+commit.abaa5c0e.Emscripten.clang"
  },
  "schemaVersion": "3.4.7",
  "updatedAt": "2022-06-11T17:14:23.175Z",
  "networkType": "ethereum",
  "devdoc": {
    "kind": "dev",
    "methods": {
      "baseURI()": {
        "details": "Returns the base URI set via {_setBaseURI}. This will be automatically added as a prefix in {tokenURI} to each token's URI, or to the token ID if no specific URI is set for that token ID."
      },
      "tokenURI(uint256)": {
        "details": "See {IERC721Metadata-tokenURI}."
      },
      "totalSupply()": {
        "returns": {
          "_0": "A count of valid NFTs tracked by this contract, where each one of  them has an assigned and queryable owner not equal to the zero address"
        }
      }
    },
    "version": 1
  },
  "userdoc": {
    "kind": "user",
    "methods": {
      "totalSupply()": {
        "notice": "Count NFTs tracked by this contract"
      }
    },
    "version": 1
  }
}