{
  "contractName": "Collections",
  "abi": [
    {
      "inputs": [],
      "stateMutability": "nonpayable",
      "type": "constructor"
    },
    {
      "anonymous": false,
      "inputs": [
        {
          "indexed": true,
          "internalType": "address",
          "name": "_owner",
          "type": "address"
        },
        {
          "indexed": true,
          "internalType": "address",
          "name": "_approved",
          "type": "address"
        },
        {
          "indexed": true,
          "internalType": "uint256",
          "name": "_tokenId",
          "type": "uint256"
        }
      ],
      "name": "Approval",
      "type": "event"
    },
    {
      "anonymous": false,
      "inputs": [
        {
          "indexed": true,
          "internalType": "address",
          "name": "_from",
          "type": "address"
        },
        {
          "indexed": true,
          "internalType": "address",
          "name": "_to",
          "type": "address"
        },
        {
          "indexed": true,
          "internalType": "uint256",
          "name": "_tokenId",
          "type": "uint256"
        }
      ],
      "name": "Transfer",
      "type": "event"
    },
    {
      "inputs": [
        {
          "internalType": "address",
          "name": "_to",
          "type": "address"
        },
        {
          "internalType": "uint256",
          "name": "tokenId",
          "type": "uint256"
        }
      ],
      "name": "approve",
      "outputs": [],
      "stateMutability": "nonpayable",
      "type": "function"
    },
    {
      "inputs": [
        {
          "internalType": "address",
          "name": "_owner",
          "type": "address"
        }
      ],
      "name": "balanceOf",
      "outputs": [
        {
          "internalType": "uint256",
          "name": "",
          "type": "uint256"
        }
      ],
      "stateMutability": "view",
      "type": "function",
      "constant": true
    },
    {
      "inputs": [
        {
          "internalType": "uint256",
          "name": "",
          "type": "uint256"
        }
      ],
      "name": "collections",
      "outputs": [
        {
          "internalType": "string",
          "name": "hash",
          "type": "string"
        },
        {
          "internalType": "string",
          "name": "fileName",
          "type": "string"
        },
        {
          "internalType": "string",
          "name": "fileType",
          "type": "string"
        },
        {
          "internalType": "string",
          "name": "date",
          "type": "string"
        }
      ],
      "stateMutability": "view",
      "type": "function",
      "constant": true
    },
    {
      "inputs": [],
      "name": "name",
      "outputs": [
        {
          "internalType": "string",
          "name": "",
          "type": "string"
        }
      ],
      "stateMutability": "view",
      "type": "function",
      "constant": true
    },
    {
      "inputs": [
        {
          "internalType": "uint256",
          "name": "_tokenId",
          "type": "uint256"
        }
      ],
      "name": "ownerOf",
      "outputs": [
        {
          "internalType": "address",
          "name": "",
          "type": "address"
        }
      ],
      "stateMutability": "view",
      "type": "function",
      "constant": true
    },
    {
      "inputs": [
        {
          "internalType": "bytes4",
          "name": "interfaceId",
          "type": "bytes4"
        }
      ],
      "name": "supportsInterface",
      "outputs": [
        {
          "internalType": "bool",
          "name": "",
          "type": "bool"
        }
      ],
      "stateMutability": "view",
      "type": "function",
      "constant": true
    },
    {
      "inputs": [],
      "name": "symbol",
      "outputs": [
        {
          "internalType": "string",
          "name": "",
          "type": "string"
        }
      ],
      "stateMutability": "view",
      "type": "function",
      "constant": true
    },
    {
      "inputs": [
        {
          "internalType": "uint256",
          "name": "index",
          "type": "uint256"
        }
      ],
      "name": "tokenByIndex",
      "outputs": [
        {
          "internalType": "uint256",
          "name": "",
          "type": "uint256"
        }
      ],
      "stateMutability": "view",
      "type": "function",
      "constant": true
    },
    {
      "inputs": [
        {
          "internalType": "address",
          "name": "owner",
          "type": "address"
        },
        {
          "internalType": "uint256",
          "name": "index",
          "type": "uint256"
        }
      ],
      "name": "tokenOfOwnerByIndex",
      "outputs": [
        {
          "internalType": "uint256",
          "name": "",
          "type": "uint256"
        }
      ],
      "stateMutability": "view",
      "type": "function",
      "constant": true
    },
    {
      "inputs": [],
      "name": "totalSupply",
      "outputs": [
        {
          "internalType": "uint256",
          "name": "",
          "type": "uint256"
        }
      ],
      "stateMutability": "view",
      "type": "function",
      "constant": true
    },
    {
      "inputs": [
        {
          "internalType": "address",
          "name": "_from",
          "type": "address"
        },
        {
          "internalType": "address",
          "name": "_to",
          "type": "address"
        },
        {
          "internalType": "uint256",
          "name": "_tokenId",
          "type": "uint256"
        }
      ],
      "name": "transferFrom",
      "outputs": [],
      "stateMutability": "nonpayable",
      "type": "function"
    },
    {
      "inputs": [
        {
          "components": [
            {
              "internalType": "string",
              "name": "hash",
              "type": "string"
            },
            {
              "internalType": "string",
              "name": "fileName",
              "type": "string"
            },
            {
              "internalType": "string",
              "name": "fileType",
              "type": "string"
            },
            {
              "internalType": "string",
              "name": "date",
              "type": "string"
            }
          ],
          "internalType": "struct Collections.Collection",
          "name": "_collection",
          "type": "tuple"
        }
      ],
      "name": "mint",
      "outputs": [],
      "stateMutability": "nonpayable",
      "type": "function"
    }
  ],
  "bytecode": "0x60806040523480156200001157600080fd5b506040518060400160405280600b81526020017f436f6c6c656374696f6e730000000000000000000000000000000000000000008152506040518060400160405280600b81526020017f434f4c4c454354494f4e530000000000000000000000000000000000000000008152508181620000b17f01ffc9a7a5cef8baa21ed3c5c0d7e23accb804b619e9333b597f47a0d84076e26200022a60201b60201c565b620001047f13b182f4c0e5b2efbac0efe6cf6d756c8b89f4b79c5707a043ed9ea740574ee97f7feaf19471f34a12a7eaf32d5f3090aa2260ea8624dc8a138e74e0bf0f623076186200022a60201b60201c565b81600190805190602001906200011c92919062000301565b5080600290805190602001906200013592919062000301565b505050620001ad7f22c82707ba960a14c7592ffb6b8cfaa073fed0048a84cc7fa41f6b5bd8e7f2e47f3a6eb71757dfc6e784c1459d26270140c2c147d95ca985c80026fc5301c3eca17f8a7e378434598edc36d108689a030cbc9d7d465de4f74c71bae1028eed6a881b18186200022a60201b60201c565b620002227f8230223f691b981717299fae9549350a0d894555723531f02108b1f522c1a7977f6da5e1284143cdd2d15038a59bde3be031250f00291d64494c12d967b3a4e0c37fc53637662700e6c65104059db8bba34439e0c32483ab7c34e3ccae52c739549518186200022a60201b60201c565b505062000498565b63ffffffff60e01b817bffffffffffffffffffffffffffffffffffffffffffffffffffffffff19160362000295576040517f08c379a00000000000000000000000000000000000000000000000000000000081526004016200028c9062000412565b60405180910390fd5b6001600080837bffffffffffffffffffffffffffffffffffffffffffffffffffffffff19167bffffffffffffffffffffffffffffffffffffffffffffffffffffffff1916815260200190815260200160002060006101000a81548160ff02191690831515021790555050565b8280546200030f9062000463565b90600052602060002090601f0160209004810192826200033357600085556200037f565b82601f106200034e57805160ff19168380011785556200037f565b828001600101855582156200037f579182015b828111156200037e57825182559160200191906001019062000361565b5b5090506200038e919062000392565b5090565b5b80821115620003ad57600081600090555060010162000393565b5090565b600082825260208201905092915050565b7f696e76616c696420696e74657266616365207265717565737400000000000000600082015250565b6000620003fa601983620003b1565b91506200040782620003c2565b602082019050919050565b600060208201905081810360008301526200042d81620003eb565b9050919050565b7f4e487b7100000000000000000000000000000000000000000000000000000000600052602260045260246000fd5b600060028204905060018216806200047c57607f821691505b60208210810362000492576200049162000434565b5b50919050565b61224580620004a86000396000f3fe608060405234801561001057600080fd5b50600436106100b45760003560e01c80634f6ccce7116100715780634f6ccce71461018d57806356f76be6146101bd5780636352211e146101d957806370a082311461020957806395d89b4114610239578063fdbda0ec14610257576100b4565b806301ffc9a7146100b957806306fdde03146100e9578063095ea7b31461010757806318160ddd1461012357806323b872dd146101415780632f745c591461015d575b600080fd5b6100d360048036038101906100ce9190611496565b61028a565b6040516100e091906114de565b60405180910390f35b6100f16102f1565b6040516100fe9190611592565b60405180910390f35b610121600480360381019061011c9190611648565b610383565b005b61012b61051e565b6040516101389190611697565b60405180910390f35b61015b600480360381019061015691906116b2565b61052b565b005b61017760048036038101906101729190611648565b61054e565b6040516101849190611697565b60405180910390f35b6101a760048036038101906101a29190611705565b6105fe565b6040516101b49190611697565b60405180910390f35b6101d760048036038101906101d29190611959565b61066f565b005b6101f360048036038101906101ee9190611705565b610810565b60405161020091906119b1565b60405180910390f35b610223600480360381019061021e91906119cc565b6108c1565b6040516102309190611697565b60405180910390f35b61024161097f565b60405161024e9190611592565b60405180910390f35b610271600480360381019061026c9190611705565b610a11565b60405161028194939291906119f9565b60405180910390f35b6000806000837bffffffffffffffffffffffffffffffffffffffffffffffffffffffff19167bffffffffffffffffffffffffffffffffffffffffffffffffffffffff1916815260200190815260200160002060009054906101000a900460ff169050919050565b60606001805461030090611a89565b80601f016020809104026020016040519081016040528092919081815260200182805461032c90611a89565b80156103795780601f1061034e57610100808354040283529160200191610379565b820191906000526020600020905b81548152906001019060200180831161035c57829003601f168201915b5050505050905090565b600061038e82610810565b90508073ffffffffffffffffffffffffffffffffffffffff168373ffffffffffffffffffffffffffffffffffffffff16036103fe576040517f08c379a00000000000000000000000000000000000000000000000000000000081526004016103f590611b2c565b60405180910390fd5b8073ffffffffffffffffffffffffffffffffffffffff163373ffffffffffffffffffffffffffffffffffffffff161461046c576040517f08c379a000000000000000000000000000000000000000000000000000000000815260040161046390611bbe565b60405180910390fd5b826005600084815260200190815260200160002060006101000a81548173ffffffffffffffffffffffffffffffffffffffff021916908373ffffffffffffffffffffffffffffffffffffffff160217905550818373ffffffffffffffffffffffffffffffffffffffff168273ffffffffffffffffffffffffffffffffffffffff167f8c5be1e5ebec7d5bd14f71427d1e84f3dd0314c0f7b2291e5b200ac8c7c3b92560405160405180910390a4505050565b6000600680549050905090565b6105353382610c71565b61053e57600080fd5b610549838383610d00565b505050565b6000610559836108c1565b821061059a576040517f08c379a000000000000000000000000000000000000000000000000000000000815260040161059190611c2a565b60405180910390fd5b600860008473ffffffffffffffffffffffffffffffffffffffff1673ffffffffffffffffffffffffffffffffffffffff16815260200190815260200160002082815481106105eb576105ea611c4a565b5b9060005260206000200154905092915050565b600061060861051e565b8210610649576040517f08c379a000000000000000000000000000000000000000000000000000000000815260040161064090611cc5565b60405180910390fd5b6006828154811061065d5761065c611c4a565b5b90600052602060002001549050919050565b600b81600001516040516106839190611d21565b908152602001604051809103902060009054906101000a900460ff16156106df576040517f08c379a00000000000000000000000000000000000000000000000000000000081526004016106d690611daa565b60405180910390fd5b600a6040518060800160405280836000015181526020018360200151815260200183604001518152602001836060015181525090806001815401808255809150506001900390600052602060002090600402016000909190919091506000820151816000019080519060200190610757929190611387565b506020820151816001019080519060200190610774929190611387565b506040820151816002019080519060200190610791929190611387565b5060608201518160030190805190602001906107ae929190611387565b50505060006001600a805490506107c59190611df9565b90506107d13382610f25565b6001600b83600001516040516107e79190611d21565b908152602001604051809103902060006101000a81548160ff0219169083151502179055505050565b6000806003600084815260200190815260200160002060009054906101000a900473ffffffffffffffffffffffffffffffffffffffff169050600073ffffffffffffffffffffffffffffffffffffffff168173ffffffffffffffffffffffffffffffffffffffff16036108b8576040517f08c379a00000000000000000000000000000000000000000000000000000000081526004016108af90611e9f565b60405180910390fd5b80915050919050565b60008073ffffffffffffffffffffffffffffffffffffffff168273ffffffffffffffffffffffffffffffffffffffff1603610931576040517f08c379a000000000000000000000000000000000000000000000000000000000815260040161092890611e9f565b60405180910390fd5b610978600460008473ffffffffffffffffffffffffffffffffffffffff1673ffffffffffffffffffffffffffffffffffffffff168152602001908152602001600020610f46565b9050919050565b60606002805461098e90611a89565b80601f01602080910402602001604051908101604052809291908181526020018280546109ba90611a89565b8015610a075780601f106109dc57610100808354040283529160200191610a07565b820191906000526020600020905b8154815290600101906020018083116109ea57829003601f168201915b5050505050905090565b600a8181548110610a2157600080fd5b9060005260206000209060040201600091509050806000018054610a4490611a89565b80601f0160208091040260200160405190810160405280929190818152602001828054610a7090611a89565b8015610abd5780601f10610a9257610100808354040283529160200191610abd565b820191906000526020600020905b815481529060010190602001808311610aa057829003601f168201915b505050505090806001018054610ad290611a89565b80601f0160208091040260200160405190810160405280929190818152602001828054610afe90611a89565b8015610b4b5780601f10610b2057610100808354040283529160200191610b4b565b820191906000526020600020905b815481529060010190602001808311610b2e57829003601f168201915b505050505090806002018054610b6090611a89565b80601f0160208091040260200160405190810160405280929190818152602001828054610b8c90611a89565b8015610bd95780601f10610bae57610100808354040283529160200191610bd9565b820191906000526020600020905b815481529060010190602001808311610bbc57829003601f168201915b505050505090806003018054610bee90611a89565b80601f0160208091040260200160405190810160405280929190818152602001828054610c1a90611a89565b8015610c675780601f10610c3c57610100808354040283529160200191610c67565b820191906000526020600020905b815481529060010190602001808311610c4a57829003601f168201915b5050505050905084565b6000610c7c82610f54565b610cbb576040517f08c379a0000000000000000000000000000000000000000000000000000000008152600401610cb290611f0b565b60405180910390fd5b6000610cc683610810565b90508073ffffffffffffffffffffffffffffffffffffffff168473ffffffffffffffffffffffffffffffffffffffff161491505092915050565b600073ffffffffffffffffffffffffffffffffffffffff168273ffffffffffffffffffffffffffffffffffffffff1603610d6f576040517f08c379a0000000000000000000000000000000000000000000000000000000008152600401610d6690611f9d565b60405180910390fd5b8273ffffffffffffffffffffffffffffffffffffffff16610d8f82610810565b73ffffffffffffffffffffffffffffffffffffffff1614610de5576040517f08c379a0000000000000000000000000000000000000000000000000000000008152600401610ddc9061202f565b60405180910390fd5b610e2c600460008573ffffffffffffffffffffffffffffffffffffffff1673ffffffffffffffffffffffffffffffffffffffff168152602001908152602001600020610fc6565b610e73600460008473ffffffffffffffffffffffffffffffffffffffff1673ffffffffffffffffffffffffffffffffffffffff168152602001908152602001600020610fe9565b816003600083815260200190815260200160002060006101000a81548173ffffffffffffffffffffffffffffffffffffffff021916908373ffffffffffffffffffffffffffffffffffffffff160217905550808273ffffffffffffffffffffffffffffffffffffffff168473ffffffffffffffffffffffffffffffffffffffff167fddf252ad1be2c89b69c2b068fc378daa952ba7f163c4a11628f55a4df523b3ef60405160405180910390a4505050565b610f2f828261100c565b610f38816111bd565b610f428282611206565b5050565b600081600001549050919050565b6000806003600084815260200190815260200160002060009054906101000a900473ffffffffffffffffffffffffffffffffffffffff169050600073ffffffffffffffffffffffffffffffffffffffff168173ffffffffffffffffffffffffffffffffffffffff161415915050919050565b610fde600182600001546112ca90919063ffffffff16565b816000018190555050565b6110016001826000015461132990919063ffffffff16565b816000018190555050565b600073ffffffffffffffffffffffffffffffffffffffff168273ffffffffffffffffffffffffffffffffffffffff160361107b576040517f08c379a0000000000000000000000000000000000000000000000000000000008152600401611072906120c1565b60405180910390fd5b61108481610f54565b156110c4576040517f08c379a00000000000000000000000000000000000000000000000000000000081526004016110bb906120c1565b60405180910390fd5b816003600083815260200190815260200160002060006101000a81548173ffffffffffffffffffffffffffffffffffffffff021916908373ffffffffffffffffffffffffffffffffffffffff16021790555061115d600460008473ffffffffffffffffffffffffffffffffffffffff1673ffffffffffffffffffffffffffffffffffffffff168152602001908152602001600020610fe9565b808273ffffffffffffffffffffffffffffffffffffffff16600073ffffffffffffffffffffffffffffffffffffffff167fddf252ad1be2c89b69c2b068fc378daa952ba7f163c4a11628f55a4df523b3ef60405160405180910390a45050565b6006805490506007600083815260200190815260200160002081905550600681908060018154018082558091505060019003906000526020600020016000909190919091505550565b600860008373ffffffffffffffffffffffffffffffffffffffff1673ffffffffffffffffffffffffffffffffffffffff168152602001908152602001600020805490506009600083815260200190815260200160002081905550600860008373ffffffffffffffffffffffffffffffffffffffff1673ffffffffffffffffffffffffffffffffffffffff1681526020019081526020016000208190806001815401808255809150506001900390600052602060002001600090919091909150555050565b60008282111561130f576040517f08c379a00000000000000000000000000000000000000000000000000000000081526004016113069061212d565b60405180910390fd5b6000828461131d9190611df9565b90508091505092915050565b6000808284611338919061214d565b90508381101561137d576040517f08c379a0000000000000000000000000000000000000000000000000000000008152600401611374906121ef565b60405180910390fd5b8091505092915050565b82805461139390611a89565b90600052602060002090601f0160209004810192826113b557600085556113fc565b82601f106113ce57805160ff19168380011785556113fc565b828001600101855582156113fc579182015b828111156113fb5782518255916020019190600101906113e0565b5b509050611409919061140d565b5090565b5b8082111561142657600081600090555060010161140e565b5090565b6000604051905090565b600080fd5b600080fd5b60007fffffffff0000000000000000000000000000000000000000000000000000000082169050919050565b6114738161143e565b811461147e57600080fd5b50565b6000813590506114908161146a565b92915050565b6000602082840312156114ac576114ab611434565b5b60006114ba84828501611481565b91505092915050565b60008115159050919050565b6114d8816114c3565b82525050565b60006020820190506114f360008301846114cf565b92915050565b600081519050919050565b600082825260208201905092915050565b60005b83811015611533578082015181840152602081019050611518565b83811115611542576000848401525b50505050565b6000601f19601f8301169050919050565b6000611564826114f9565b61156e8185611504565b935061157e818560208601611515565b61158781611548565b840191505092915050565b600060208201905081810360008301526115ac8184611559565b905092915050565b600073ffffffffffffffffffffffffffffffffffffffff82169050919050565b60006115df826115b4565b9050919050565b6115ef816115d4565b81146115fa57600080fd5b50565b60008135905061160c816115e6565b92915050565b6000819050919050565b61162581611612565b811461163057600080fd5b50565b6000813590506116428161161c565b92915050565b6000806040838503121561165f5761165e611434565b5b600061166d858286016115fd565b925050602061167e85828601611633565b9150509250929050565b61169181611612565b82525050565b60006020820190506116ac6000830184611688565b92915050565b6000806000606084860312156116cb576116ca611434565b5b60006116d9868287016115fd565b93505060206116ea868287016115fd565b92505060406116fb86828701611633565b9150509250925092565b60006020828403121561171b5761171a611434565b5b600061172984828501611633565b91505092915050565b600080fd5b7f4e487b7100000000000000000000000000000000000000000000000000000000600052604160045260246000fd5b61176f82611548565b810181811067ffffffffffffffff8211171561178e5761178d611737565b5b80604052505050565b60006117a161142a565b90506117ad8282611766565b919050565b600080fd5b600080fd5b600080fd5b600067ffffffffffffffff8211156117dc576117db611737565b5b6117e582611548565b9050602081019050919050565b82818337600083830152505050565b600061181461180f846117c1565b611797565b9050828152602081018484840111156118305761182f6117bc565b5b61183b8482856117f2565b509392505050565b600082601f830112611858576118576117b7565b5b8135611868848260208601611801565b91505092915050565b60006080828403121561188757611886611732565b5b6118916080611797565b9050600082013567ffffffffffffffff8111156118b1576118b06117b2565b5b6118bd84828501611843565b600083015250602082013567ffffffffffffffff8111156118e1576118e06117b2565b5b6118ed84828501611843565b602083015250604082013567ffffffffffffffff811115611911576119106117b2565b5b61191d84828501611843565b604083015250606082013567ffffffffffffffff811115611941576119406117b2565b5b61194d84828501611843565b60608301525092915050565b60006020828403121561196f5761196e611434565b5b600082013567ffffffffffffffff81111561198d5761198c611439565b5b61199984828501611871565b91505092915050565b6119ab816115d4565b82525050565b60006020820190506119c660008301846119a2565b92915050565b6000602082840312156119e2576119e1611434565b5b60006119f0848285016115fd565b91505092915050565b60006080820190508181036000830152611a138187611559565b90508181036020830152611a278186611559565b90508181036040830152611a3b8185611559565b90508181036060830152611a4f8184611559565b905095945050505050565b7f4e487b7100000000000000000000000000000000000000000000000000000000600052602260045260246000fd5b60006002820490506001821680611aa157607f821691505b602082108103611ab457611ab3611a5a565b5b50919050565b7f4572726f72202d20617070726f76616c20746f2063757272656e74206f776e6560008201527f7200000000000000000000000000000000000000000000000000000000000000602082015250565b6000611b16602183611504565b9150611b2182611aba565b604082019050919050565b60006020820190508181036000830152611b4581611b09565b9050919050565b7f43757272656e742063616c6c6572206973206e6f7420746865206f776e65722060008201527f6f662074686520746f6b656e0000000000000000000000000000000000000000602082015250565b6000611ba8602c83611504565b9150611bb382611b4c565b604082019050919050565b60006020820190508181036000830152611bd781611b9b565b9050919050565b7f6f776e657220696e646578206f7574206f6620626f756e640000000000000000600082015250565b6000611c14601883611504565b9150611c1f82611bde565b602082019050919050565b60006020820190508181036000830152611c4381611c07565b9050919050565b7f4e487b7100000000000000000000000000000000000000000000000000000000600052603260045260246000fd5b7f676c6f62616c20696e646578206973206f7574206f6620626f756e6400000000600082015250565b6000611caf601c83611504565b9150611cba82611c79565b602082019050919050565b60006020820190508181036000830152611cde81611ca2565b9050919050565b600081905092915050565b6000611cfb826114f9565b611d058185611ce5565b9350611d15818560208601611515565b80840191505092915050565b6000611d2d8284611cf0565b915081905092915050565b7f4572726f72202d20636f6c6c656374696f6e20616c726561647920657869737460008201527f7300000000000000000000000000000000000000000000000000000000000000602082015250565b6000611d94602183611504565b9150611d9f82611d38565b604082019050919050565b60006020820190508181036000830152611dc381611d87565b9050919050565b7f4e487b7100000000000000000000000000000000000000000000000000000000600052601160045260246000fd5b6000611e0482611612565b9150611e0f83611612565b925082821015611e2257611e21611dca565b5b828203905092915050565b7f6f776e657220717565727920666f72206e6f6e2d6578697374656e7420746f6b60008201527f656e000000000000000000000000000000000000000000000000000000000000602082015250565b6000611e89602283611504565b9150611e9482611e2d565b604082019050919050565b60006020820190508181036000830152611eb881611e7c565b9050919050565b7f746f6b656e20646f6573206e6f74206578697473000000000000000000000000600082015250565b6000611ef5601483611504565b9150611f0082611ebf565b602082019050919050565b60006020820190508181036000830152611f2481611ee8565b9050919050565b7f4572726f72202d20455243373231205472617366657220746f20746865207a6560008201527f726f206164647265737300000000000000000000000000000000000000000000602082015250565b6000611f87602a83611504565b9150611f9282611f2b565b604082019050919050565b60006020820190508181036000830152611fb681611f7a565b9050919050565b7f547279696e6720746f207472616e73666572206120746f6b656e20746865206160008201527f64647265737320646f6573206e6f74206f776e00000000000000000000000000602082015250565b6000612019603383611504565b915061202482611fbd565b604082019050919050565b600060208201905081810360008301526120488161200c565b9050919050565b7f4552433732313a206d696e74696e6720746f20746865207a65726f206164647260008201527f6573730000000000000000000000000000000000000000000000000000000000602082015250565b60006120ab602383611504565b91506120b68261204f565b604082019050919050565b600060208201905081810360008301526120da8161209e565b9050919050565b7f536166654d6174683a205375627472616374696f6e204f766572666c6f770000600082015250565b6000612117601e83611504565b9150612122826120e1565b602082019050919050565b600060208201905081810360008301526121468161210a565b9050919050565b600061215882611612565b915061216383611612565b9250827fffffffffffffffffffffffffffffffffffffffffffffffffffffffffffffffff0382111561219857612197611dca565b5b828201905092915050565b7f536166654d6174683a204164646974696f6e204f766572666c6f770000000000600082015250565b60006121d9601b83611504565b91506121e4826121a3565b602082019050919050565b60006020820190508181036000830152612208816121cc565b905091905056fea264697066735822122098fb994fb8caa5ab5159352823d08d8a33769b2c90feb874717870963b5e116864736f6c634300080d0033",
  "immutableReferences": {},
  "source": "// SPDX-License-Identifier: MIT\npragma solidity >=0.4.22 <0.9.0;\n\nimport \"./ERC721Connector.sol\";\n\ncontract Collections is ERC721Connector {\n    // array to store nfts\n    struct Collection {\n        string hash;\n        string fileName;\n        string fileType;\n        string date;\n    }\n\n    Collection[] public collections;\n\n    mapping(string => bool) collectionExists;\n\n    function mint(Collection memory _collection) public {\n        require(\n            !collectionExists[_collection.hash],\n            \"Error - collection already exists\"\n        );\n        collections.push(\n            Collection({\n                hash: _collection.hash,\n                fileName: _collection.fileName,\n                fileType: _collection.fileType,\n                date: _collection.date\n            })\n        );\n        uint256 id = collections.length - 1;\n        _mint(msg.sender, id);\n        collectionExists[_collection.hash] = true;\n    }\n\n    constructor() ERC721Connector(\"Collections\", \"COLLECTIONS\") {}\n}\n",
  "sourcePath": "/Users/amaz/Work/amazonyte/contract/contracts/Collections.sol",
  "compiler": {
    "name": "solc",
    "version": "0.8.13+commit.abaa5c0e.Emscripten.clang"
  },
  "schemaVersion": "3.4.7",
  "updatedAt": "2022-06-01T08:35:45.585Z",
  "networkType": "ethereum",
  "devdoc": {
    "kind": "dev",
    "methods": {
      "totalSupply()": {
        "returns": {
          "_0": "A count of valid NFTs tracked by this contract, where each one of  them has an assigned and queryable owner not equal to the zero address"
        }
      }
    },
    "version": 1
  },
  "userdoc": {
    "kind": "user",
    "methods": {
      "totalSupply()": {
        "notice": "Count NFTs tracked by this contract"
      }
    },
    "version": 1
  }
}