{
  "contractName": "Collections",
  "abi": [
    {
      "inputs": [],
      "stateMutability": "nonpayable",
      "type": "constructor"
    },
    {
      "anonymous": false,
      "inputs": [
        {
          "indexed": true,
          "internalType": "address",
          "name": "owner",
          "type": "address"
        },
        {
          "indexed": true,
          "internalType": "address",
          "name": "approved",
          "type": "address"
        },
        {
          "indexed": true,
          "internalType": "uint256",
          "name": "tokenId",
          "type": "uint256"
        }
      ],
      "name": "Approval",
      "type": "event"
    },
    {
      "anonymous": false,
      "inputs": [
        {
          "indexed": true,
          "internalType": "address",
          "name": "owner",
          "type": "address"
        },
        {
          "indexed": true,
          "internalType": "address",
          "name": "operator",
          "type": "address"
        },
        {
          "indexed": false,
          "internalType": "bool",
          "name": "approved",
          "type": "bool"
        }
      ],
      "name": "ApprovalForAll",
      "type": "event"
    },
    {
      "anonymous": false,
      "inputs": [
        {
          "indexed": true,
          "internalType": "address",
          "name": "from",
          "type": "address"
        },
        {
          "indexed": true,
          "internalType": "address",
          "name": "to",
          "type": "address"
        },
        {
          "indexed": true,
          "internalType": "uint256",
          "name": "tokenId",
          "type": "uint256"
        }
      ],
      "name": "Transfer",
      "type": "event"
    },
    {
      "inputs": [
        {
          "internalType": "address",
          "name": "to",
          "type": "address"
        },
        {
          "internalType": "uint256",
          "name": "tokenId",
          "type": "uint256"
        }
      ],
      "name": "approve",
      "outputs": [],
      "stateMutability": "nonpayable",
      "type": "function"
    },
    {
      "inputs": [
        {
          "internalType": "address",
          "name": "owner",
          "type": "address"
        }
      ],
      "name": "balanceOf",
      "outputs": [
        {
          "internalType": "uint256",
          "name": "",
          "type": "uint256"
        }
      ],
      "stateMutability": "view",
      "type": "function",
      "constant": true
    },
    {
      "inputs": [],
      "name": "baseURI",
      "outputs": [
        {
          "internalType": "string",
          "name": "",
          "type": "string"
        }
      ],
      "stateMutability": "view",
      "type": "function",
      "constant": true
    },
    {
      "inputs": [
        {
          "internalType": "uint256",
          "name": "",
          "type": "uint256"
        }
      ],
      "name": "collections",
      "outputs": [
        {
          "internalType": "string",
          "name": "hash",
          "type": "string"
        },
        {
          "internalType": "string",
          "name": "fileName",
          "type": "string"
        },
        {
          "internalType": "string",
          "name": "fileType",
          "type": "string"
        },
        {
          "internalType": "string",
          "name": "date",
          "type": "string"
        }
      ],
      "stateMutability": "view",
      "type": "function",
      "constant": true
    },
    {
      "inputs": [
        {
          "internalType": "uint256",
          "name": "tokenId",
          "type": "uint256"
        }
      ],
      "name": "getApproved",
      "outputs": [
        {
          "internalType": "address",
          "name": "",
          "type": "address"
        }
      ],
      "stateMutability": "view",
      "type": "function",
      "constant": true
    },
    {
      "inputs": [
        {
          "internalType": "address",
          "name": "owner",
          "type": "address"
        },
        {
          "internalType": "address",
          "name": "operator",
          "type": "address"
        }
      ],
      "name": "isApprovedForAll",
      "outputs": [
        {
          "internalType": "bool",
          "name": "",
          "type": "bool"
        }
      ],
      "stateMutability": "view",
      "type": "function",
      "constant": true
    },
    {
      "inputs": [],
      "name": "name",
      "outputs": [
        {
          "internalType": "string",
          "name": "",
          "type": "string"
        }
      ],
      "stateMutability": "view",
      "type": "function",
      "constant": true
    },
    {
      "inputs": [
        {
          "internalType": "uint256",
          "name": "tokenId",
          "type": "uint256"
        }
      ],
      "name": "ownerOf",
      "outputs": [
        {
          "internalType": "address",
          "name": "",
          "type": "address"
        }
      ],
      "stateMutability": "view",
      "type": "function",
      "constant": true
    },
    {
      "inputs": [
        {
          "internalType": "address",
          "name": "from",
          "type": "address"
        },
        {
          "internalType": "address",
          "name": "to",
          "type": "address"
        },
        {
          "internalType": "uint256",
          "name": "tokenId",
          "type": "uint256"
        }
      ],
      "name": "safeTransferFrom",
      "outputs": [],
      "stateMutability": "nonpayable",
      "type": "function"
    },
    {
      "inputs": [
        {
          "internalType": "address",
          "name": "from",
          "type": "address"
        },
        {
          "internalType": "address",
          "name": "to",
          "type": "address"
        },
        {
          "internalType": "uint256",
          "name": "tokenId",
          "type": "uint256"
        },
        {
          "internalType": "bytes",
          "name": "_data",
          "type": "bytes"
        }
      ],
      "name": "safeTransferFrom",
      "outputs": [],
      "stateMutability": "nonpayable",
      "type": "function"
    },
    {
      "inputs": [
        {
          "internalType": "address",
          "name": "operator",
          "type": "address"
        },
        {
          "internalType": "bool",
          "name": "approved",
          "type": "bool"
        }
      ],
      "name": "setApprovalForAll",
      "outputs": [],
      "stateMutability": "nonpayable",
      "type": "function"
    },
    {
      "inputs": [
        {
          "internalType": "bytes4",
          "name": "interfaceId",
          "type": "bytes4"
        }
      ],
      "name": "supportsInterface",
      "outputs": [
        {
          "internalType": "bool",
          "name": "",
          "type": "bool"
        }
      ],
      "stateMutability": "view",
      "type": "function",
      "constant": true
    },
    {
      "inputs": [],
      "name": "symbol",
      "outputs": [
        {
          "internalType": "string",
          "name": "",
          "type": "string"
        }
      ],
      "stateMutability": "view",
      "type": "function",
      "constant": true
    },
    {
      "inputs": [
        {
          "internalType": "uint256",
          "name": "index",
          "type": "uint256"
        }
      ],
      "name": "tokenByIndex",
      "outputs": [
        {
          "internalType": "uint256",
          "name": "",
          "type": "uint256"
        }
      ],
      "stateMutability": "view",
      "type": "function",
      "constant": true
    },
    {
      "inputs": [
        {
          "internalType": "address",
          "name": "owner",
          "type": "address"
        },
        {
          "internalType": "uint256",
          "name": "index",
          "type": "uint256"
        }
      ],
      "name": "tokenOfOwnerByIndex",
      "outputs": [
        {
          "internalType": "uint256",
          "name": "",
          "type": "uint256"
        }
      ],
      "stateMutability": "view",
      "type": "function",
      "constant": true
    },
    {
      "inputs": [
        {
          "internalType": "uint256",
          "name": "tokenId",
          "type": "uint256"
        }
      ],
      "name": "tokenURI",
      "outputs": [
        {
          "internalType": "string",
          "name": "",
          "type": "string"
        }
      ],
      "stateMutability": "view",
      "type": "function",
      "constant": true
    },
    {
      "inputs": [],
      "name": "totalSupply",
      "outputs": [
        {
          "internalType": "uint256",
          "name": "",
          "type": "uint256"
        }
      ],
      "stateMutability": "view",
      "type": "function",
      "constant": true
    },
    {
      "inputs": [
        {
          "internalType": "address",
          "name": "from",
          "type": "address"
        },
        {
          "internalType": "address",
          "name": "to",
          "type": "address"
        },
        {
          "internalType": "uint256",
          "name": "tokenId",
          "type": "uint256"
        }
      ],
      "name": "transferFrom",
      "outputs": [],
      "stateMutability": "nonpayable",
      "type": "function"
    },
    {
      "inputs": [
        {
          "components": [
            {
              "internalType": "string",
              "name": "hash",
              "type": "string"
            },
            {
              "internalType": "string",
              "name": "fileName",
              "type": "string"
            },
            {
              "internalType": "string",
              "name": "fileType",
              "type": "string"
            },
            {
              "internalType": "string",
              "name": "date",
              "type": "string"
            }
          ],
          "internalType": "struct Collections.Collection",
          "name": "_collection",
          "type": "tuple"
        },
        {
          "internalType": "string",
          "name": "tokenURI",
          "type": "string"
        }
      ],
      "name": "mint",
      "outputs": [],
      "stateMutability": "nonpayable",
      "type": "function"
    },
    {
      "inputs": [
        {
          "internalType": "uint256",
          "name": "tokenId",
          "type": "uint256"
        }
      ],
      "name": "getTokenURI",
      "outputs": [
        {
          "internalType": "string",
          "name": "",
          "type": "string"
        }
      ],
      "stateMutability": "view",
      "type": "function",
      "constant": true
    },
    {
      "inputs": [
        {
          "internalType": "uint256",
          "name": "tokenId",
          "type": "uint256"
        },
        {
          "internalType": "string",
          "name": "_tokenURI",
          "type": "string"
        }
      ],
      "name": "setTokenURI",
      "outputs": [],
      "stateMutability": "nonpayable",
      "type": "function"
    }
  ],
  "bytecode": "0x60806040523480156200001157600080fd5b506040518060400160405280600b81526020017f436f6c6c656374696f6e730000000000000000000000000000000000000000008152506040518060400160405280600b81526020017f434f4c4c454354494f4e53000000000000000000000000000000000000000000815250620000966301ffc9a760e01b6200011860201b60201c565b8160069080519060200190620000ae929190620001f0565b508060079080519060200190620000c7929190620001f0565b50620000e06380ac58cd60e01b6200011860201b60201c565b620000f8635b5e139f60e01b6200011860201b60201c565b6200011063780e9d6360e01b6200011860201b60201c565b505062000314565b63ffffffff60e01b817bffffffffffffffffffffffffffffffffffffffffffffffffffffffff1916141562000184576040517f08c379a00000000000000000000000000000000000000000000000000000000081526004016200017b90620002e1565b60405180910390fd5b6001600080837bffffffffffffffffffffffffffffffffffffffffffffffffffffffff19167bffffffffffffffffffffffffffffffffffffffffffffffffffffffff1916815260200190815260200160002060006101000a81548160ff02191690831515021790555050565b828054600181600116156101000203166002900490600052602060002090601f016020900481019282601f106200023357805160ff191683800117855562000264565b8280016001018555821562000264579182015b828111156200026357825182559160200191906001019062000246565b5b50905062000273919062000277565b5090565b6200029c91905b80821115620002985760008160009055506001016200027e565b5090565b90565b6000620002ae601c8362000303565b91507f4552433136353a20696e76616c696420696e74657266616365206964000000006000830152602082019050919050565b60006020820190508181036000830152620002fc816200029f565b9050919050565b600082825260208201905092915050565b61370880620003246000396000f3fe608060405234801561001057600080fd5b50600436106101375760003560e01c80634f6ccce7116100b8578063a22cb4651161007c578063a22cb46514610374578063b88d4fde14610390578063c87b56dd146103ac578063e73c4af1146103dc578063e985e9c5146103f8578063fdbda0ec1461042857610137565b80634f6ccce7146102a85780636352211e146102d85780636c0360eb1461030857806370a082311461032657806395d89b411461035657610137565b806318160ddd116100ff57806318160ddd146101f257806323b872dd146102105780632f745c591461022c5780633bb3a24d1461025c57806342842e0e1461028c57610137565b806301ffc9a71461013c57806306fdde031461016c578063081812fc1461018a578063095ea7b3146101ba578063162094c4146101d6575b600080fd5b61015660048036038101906101519190612758565b61045b565b6040516101639190613156565b60405180910390f35b6101746104c2565b6040516101819190613171565b60405180910390f35b6101a4600480360381019061019f9190612816565b610564565b6040516101b191906130ef565b60405180910390f35b6101d460048036038101906101cf919061271c565b6105e9565b005b6101f060048036038101906101eb919061283f565b610701565b005b6101fa61075f565b6040516102079190613454565b60405180910390f35b61022a60048036038101906102259190612616565b610770565b005b6102466004803603810190610241919061271c565b6107d0565b6040516102539190613454565b60405180910390f35b61027660048036038101906102719190612816565b61082b565b6040516102839190613171565b60405180910390f35b6102a660048036038101906102a19190612616565b61083d565b005b6102c260048036038101906102bd9190612816565b61085d565b6040516102cf9190613454565b60405180910390f35b6102f260048036038101906102ed9190612816565b610880565b6040516102ff91906130ef565b60405180910390f35b6103106108b7565b60405161031d9190613171565b60405180910390f35b610340600480360381019061033b91906125b1565b610959565b60405161034d9190613454565b60405180910390f35b61035e610a18565b60405161036b9190613171565b60405180910390f35b61038e600480360381019061038991906126e0565b610aba565b005b6103aa60048036038101906103a59190612665565b610c3b565b005b6103c660048036038101906103c19190612816565b610c9d565b6040516103d39190613171565b60405180910390f35b6103f660048036038101906103f191906127aa565b610e20565b005b610412600480360381019061040d91906125da565b610fc3565b60405161041f9190613156565b60405180910390f35b610442600480360381019061043d9190612816565b611057565b6040516104529493929190613193565b60405180910390f35b6000806000837bffffffffffffffffffffffffffffffffffffffffffffffffffffffff19167bffffffffffffffffffffffffffffffffffffffffffffffffffffffff1916815260200190815260200160002060009054906101000a900460ff169050919050565b606060068054600181600116156101000203166002900480601f01602080910402602001604051908101604052809291908181526020018280546001816001161561010002031660029004801561055a5780601f1061052f5761010080835404028352916020019161055a565b820191906000526020600020905b81548152906001019060200180831161053d57829003601f168201915b5050505050905090565b600061056f826112f4565b6105ae576040517f08c379a00000000000000000000000000000000000000000000000000000000081526004016105a590613374565b60405180910390fd5b6004600083815260200190815260200160002060009054906101000a900473ffffffffffffffffffffffffffffffffffffffff169050919050565b60006105f482610880565b90508073ffffffffffffffffffffffffffffffffffffffff168373ffffffffffffffffffffffffffffffffffffffff161415610665576040517f08c379a000000000000000000000000000000000000000000000000000000000815260040161065c906133f4565b60405180910390fd5b8073ffffffffffffffffffffffffffffffffffffffff16610684611311565b73ffffffffffffffffffffffffffffffffffffffff1614806106b357506106b2816106ad611311565b610fc3565b5b6106f2576040517f08c379a00000000000000000000000000000000000000000000000000000000081526004016106e9906132f4565b60405180910390fd5b6106fc8383611319565b505050565b61071261070c611311565b836113d2565b610751576040517f08c379a000000000000000000000000000000000000000000000000000000000815260040161074890613414565b60405180910390fd5b61075b82826114b0565b5050565b600061076b6002611524565b905090565b61078161077b611311565b826113d2565b6107c0576040517f08c379a00000000000000000000000000000000000000000000000000000000081526004016107b790613414565b60405180910390fd5b6107cb838383611539565b505050565b600061082382600160008673ffffffffffffffffffffffffffffffffffffffff1673ffffffffffffffffffffffffffffffffffffffff16815260200190815260200160002061175090919063ffffffff16565b905092915050565b606061083682610c9d565b9050919050565b61085883838360405180602001604052806000815250610c3b565b505050565b60008061087483600261176a90919063ffffffff16565b50905080915050919050565b60006108b0826040518060600160405280602981526020016136aa6029913960026117999092919063ffffffff16565b9050919050565b606060098054600181600116156101000203166002900480601f01602080910402602001604051908101604052809291908181526020018280546001816001161561010002031660029004801561094f5780601f106109245761010080835404028352916020019161094f565b820191906000526020600020905b81548152906001019060200180831161093257829003601f168201915b5050505050905090565b60008073ffffffffffffffffffffffffffffffffffffffff168273ffffffffffffffffffffffffffffffffffffffff1614156109ca576040517f08c379a00000000000000000000000000000000000000000000000000000000081526004016109c190613314565b60405180910390fd5b610a11600160008473ffffffffffffffffffffffffffffffffffffffff1673ffffffffffffffffffffffffffffffffffffffff1681526020019081526020016000206117b8565b9050919050565b606060078054600181600116156101000203166002900480601f016020809104026020016040519081016040528092919081815260200182805460018160011615610100020316600290048015610ab05780601f10610a8557610100808354040283529160200191610ab0565b820191906000526020600020905b815481529060010190602001808311610a9357829003601f168201915b5050505050905090565b610ac2611311565b73ffffffffffffffffffffffffffffffffffffffff168273ffffffffffffffffffffffffffffffffffffffff161415610b30576040517f08c379a0000000000000000000000000000000000000000000000000000000008152600401610b2790613294565b60405180910390fd5b8060056000610b3d611311565b73ffffffffffffffffffffffffffffffffffffffff1673ffffffffffffffffffffffffffffffffffffffff16815260200190815260200160002060008473ffffffffffffffffffffffffffffffffffffffff1673ffffffffffffffffffffffffffffffffffffffff16815260200190815260200160002060006101000a81548160ff0219169083151502179055508173ffffffffffffffffffffffffffffffffffffffff16610bea611311565b73ffffffffffffffffffffffffffffffffffffffff167f17307eab39ab6107e8899845ad3d59bd9653f200f220920489ca2b5937696c3183604051610c2f9190613156565b60405180910390a35050565b610c4c610c46611311565b836113d2565b610c8b576040517f08c379a0000000000000000000000000000000000000000000000000000000008152600401610c8290613414565b60405180910390fd5b610c97848484846117cd565b50505050565b6060610ca8826112f4565b610ce7576040517f08c379a0000000000000000000000000000000000000000000000000000000008152600401610cde906133d4565b60405180910390fd5b6060600860008481526020019081526020016000208054600181600116156101000203166002900480601f016020809104026020016040519081016040528092919081815260200182805460018160011615610100020316600290048015610d905780601f10610d6557610100808354040283529160200191610d90565b820191906000526020600020905b815481529060010190602001808311610d7357829003601f168201915b505050505090506060610da16108b7565b9050600081511415610db7578192505050610e1b565b600082511115610dec578082604051602001610dd49291906130cb565b60405160208183030381529060405292505050610e1b565b80610df685611829565b604051602001610e079291906130cb565b604051602081830303815290604052925050505b919050565b600b8260000151604051610e3491906130b4565b908152602001604051809103902060009054906101000a900460ff1615610e90576040517f08c379a0000000000000000000000000000000000000000000000000000000008152600401610e8790613214565b60405180910390fd5b600a6040518060800160405280846000015181526020018460200151815260200184604001518152602001846060015181525090806001815401808255809150506001900390600052602060002090600402016000909190919091506000820151816000019080519060200190610f08929190612327565b506020820151816001019080519060200190610f25929190612327565b506040820151816002019080519060200190610f42929190612327565b506060820151816003019080519060200190610f5f929190612327565b50505060006001600a80549050039050610f793382611970565b610f8381836114b0565b6001600b8460000151604051610f9991906130b4565b908152602001604051809103902060006101000a81548160ff021916908315150217905550505050565b6000600560008473ffffffffffffffffffffffffffffffffffffffff1673ffffffffffffffffffffffffffffffffffffffff16815260200190815260200160002060008373ffffffffffffffffffffffffffffffffffffffff1673ffffffffffffffffffffffffffffffffffffffff16815260200190815260200160002060009054906101000a900460ff16905092915050565b600a818154811061106457fe5b9060005260206000209060040201600091509050806000018054600181600116156101000203166002900480601f0160208091040260200160405190810160405280929190818152602001828054600181600116156101000203166002900480156111105780601f106110e557610100808354040283529160200191611110565b820191906000526020600020905b8154815290600101906020018083116110f357829003601f168201915b505050505090806001018054600181600116156101000203166002900480601f0160208091040260200160405190810160405280929190818152602001828054600181600116156101000203166002900480156111ae5780601f10611183576101008083540402835291602001916111ae565b820191906000526020600020905b81548152906001019060200180831161119157829003601f168201915b505050505090806002018054600181600116156101000203166002900480601f01602080910402602001604051908101604052809291908181526020018280546001816001161561010002031660029004801561124c5780601f106112215761010080835404028352916020019161124c565b820191906000526020600020905b81548152906001019060200180831161122f57829003601f168201915b505050505090806003018054600181600116156101000203166002900480601f0160208091040260200160405190810160405280929190818152602001828054600181600116156101000203166002900480156112ea5780601f106112bf576101008083540402835291602001916112ea565b820191906000526020600020905b8154815290600101906020018083116112cd57829003601f168201915b5050505050905084565b600061130a82600261198e90919063ffffffff16565b9050919050565b600033905090565b816004600083815260200190815260200160002060006101000a81548173ffffffffffffffffffffffffffffffffffffffff021916908373ffffffffffffffffffffffffffffffffffffffff160217905550808273ffffffffffffffffffffffffffffffffffffffff1661138c83610880565b73ffffffffffffffffffffffffffffffffffffffff167f8c5be1e5ebec7d5bd14f71427d1e84f3dd0314c0f7b2291e5b200ac8c7c3b92560405160405180910390a45050565b60006113dd826112f4565b61141c576040517f08c379a0000000000000000000000000000000000000000000000000000000008152600401611413906132d4565b60405180910390fd5b600061142783610880565b90508073ffffffffffffffffffffffffffffffffffffffff168473ffffffffffffffffffffffffffffffffffffffff16148061149657508373ffffffffffffffffffffffffffffffffffffffff1661147e84610564565b73ffffffffffffffffffffffffffffffffffffffff16145b806114a757506114a68185610fc3565b5b91505092915050565b6114b9826112f4565b6114f8576040517f08c379a00000000000000000000000000000000000000000000000000000000081526004016114ef90613394565b60405180910390fd5b8060086000848152602001908152602001600020908051906020019061151f929190612327565b505050565b6000611532826000016119a8565b9050919050565b8273ffffffffffffffffffffffffffffffffffffffff1661155982610880565b73ffffffffffffffffffffffffffffffffffffffff16146115af576040517f08c379a00000000000000000000000000000000000000000000000000000000081526004016115a6906133b4565b60405180910390fd5b600073ffffffffffffffffffffffffffffffffffffffff168273ffffffffffffffffffffffffffffffffffffffff16141561161f576040517f08c379a000000000000000000000000000000000000000000000000000000000815260040161161690613274565b60405180910390fd5b61162a8383836119b9565b611635600082611319565b61168681600160008673ffffffffffffffffffffffffffffffffffffffff1673ffffffffffffffffffffffffffffffffffffffff1681526020019081526020016000206119be90919063ffffffff16565b506116d881600160008573ffffffffffffffffffffffffffffffffffffffff1673ffffffffffffffffffffffffffffffffffffffff1681526020019081526020016000206119d890919063ffffffff16565b506116ef818360026119f29092919063ffffffff16565b50808273ffffffffffffffffffffffffffffffffffffffff168473ffffffffffffffffffffffffffffffffffffffff167fddf252ad1be2c89b69c2b068fc378daa952ba7f163c4a11628f55a4df523b3ef60405160405180910390a4505050565b600061175f8360000183611a27565b60001c905092915050565b60008060008061177d8660000186611a94565b915091508160001c8160001c8090509350935050509250929050565b60006117ac846000018460001b84611b17565b60001c90509392505050565b60006117c682600001611ba8565b9050919050565b6117d8848484611539565b6117e484848484611bb9565b611823576040517f08c379a000000000000000000000000000000000000000000000000000000000815260040161181a90613234565b60405180910390fd5b50505050565b60606000821415611871576040518060400160405280600181526020017f3000000000000000000000000000000000000000000000000000000000000000815250905061196b565b600082905060005b6000821461189b578080600101915050600a828161189357fe5b049150611879565b60608167ffffffffffffffff811180156118b457600080fd5b506040519080825280601f01601f1916602001820160405280156118e75781602001600182028036833780820191505090505b50905060006001830390508593505b6000841461196357600a848161190857fe5b0660300160f81b8282806001900393508151811061192257fe5b60200101907effffffffffffffffffffffffffffffffffffffffffffffffffffffffffffff1916908160001a905350600a848161195b57fe5b0493506118f6565b819450505050505b919050565b61198a828260405180602001604052806000815250611d1d565b5050565b60006119a0836000018360001b611d78565b905092915050565b600081600001805490509050919050565b505050565b60006119d0836000018360001b611d9b565b905092915050565b60006119ea836000018360001b611e83565b905092915050565b6000611a1e846000018460001b8473ffffffffffffffffffffffffffffffffffffffff1660001b611ef3565b90509392505050565b600081836000018054905011611a72576040517f08c379a0000000000000000000000000000000000000000000000000000000008152600401611a69906131f4565b60405180910390fd5b826000018281548110611a8157fe5b9060005260206000200154905092915050565b60008082846000018054905011611ae0576040517f08c379a0000000000000000000000000000000000000000000000000000000008152600401611ad790613334565b60405180910390fd5b6000846000018481548110611af157fe5b906000526020600020906002020190508060000154816001015492509250509250929050565b60008084600101600085815260200190815260200160002054905060008114158390611b79576040517f08c379a0000000000000000000000000000000000000000000000000000000008152600401611b709190613171565b60405180910390fd5b50846000016001820381548110611b8c57fe5b9060005260206000209060020201600101549150509392505050565b600081600001805490509050919050565b6000611bda8473ffffffffffffffffffffffffffffffffffffffff16611fcf565b611be75760019050611d15565b6060611cae63150b7a0260e01b611bfc611311565b888787604051602401611c12949392919061310a565b604051602081830303815290604052907bffffffffffffffffffffffffffffffffffffffffffffffffffffffff19166020820180517bffffffffffffffffffffffffffffffffffffffffffffffffffffffff8381831617835250505050604051806060016040528060328152602001613678603291398773ffffffffffffffffffffffffffffffffffffffff16611fe29092919063ffffffff16565b9050600081806020019051810190611cc69190612781565b905063150b7a0260e01b7bffffffffffffffffffffffffffffffffffffffffffffffffffffffff1916817bffffffffffffffffffffffffffffffffffffffffffffffffffffffff191614925050505b949350505050565b611d278383611ffa565b611d346000848484611bb9565b611d73576040517f08c379a0000000000000000000000000000000000000000000000000000000008152600401611d6a90613234565b60405180910390fd5b505050565b600080836001016000848152602001908152602001600020541415905092915050565b60008083600101600084815260200190815260200160002054905060008114611e775760006001820390506000600186600001805490500390506000866000018281548110611de657fe5b9060005260206000200154905080876000018481548110611e0357fe5b9060005260206000200181905550600183018760010160008381526020019081526020016000208190555086600001805480611e3b57fe5b60019003818190600052602060002001600090559055866001016000878152602001908152602001600020600090556001945050505050611e7d565b60009150505b92915050565b6000611e8f8383612188565b611ee8578260000182908060018154018082558091505060019003906000526020600020016000909190919091505582600001805490508360010160008481526020019081526020016000208190555060019050611eed565b600090505b92915050565b6000808460010160008581526020019081526020016000205490506000811415611f9a57846000016040518060400160405280868152602001858152509080600181540180825580915050600190039060005260206000209060020201600090919091909150600082015181600001556020820151816001015550508460000180549050856001016000868152602001908152602001600020819055506001915050611fc8565b82856000016001830381548110611fad57fe5b90600052602060002090600202016001018190555060009150505b9392505050565b600080823b905060008111915050919050565b6060611ff184846000856121ab565b90509392505050565b600073ffffffffffffffffffffffffffffffffffffffff168273ffffffffffffffffffffffffffffffffffffffff16141561206a576040517f08c379a000000000000000000000000000000000000000000000000000000000815260040161206190613354565b60405180910390fd5b612073816112f4565b156120b3576040517f08c379a00000000000000000000000000000000000000000000000000000000081526004016120aa90613254565b60405180910390fd5b6120bf600083836119b9565b61211081600160008573ffffffffffffffffffffffffffffffffffffffff1673ffffffffffffffffffffffffffffffffffffffff1681526020019081526020016000206119d890919063ffffffff16565b50612127818360026119f29092919063ffffffff16565b50808273ffffffffffffffffffffffffffffffffffffffff16600073ffffffffffffffffffffffffffffffffffffffff167fddf252ad1be2c89b69c2b068fc378daa952ba7f163c4a11628f55a4df523b3ef60405160405180910390a45050565b600080836001016000848152602001908152602001600020541415905092915050565b6060824710156121f0576040517f08c379a00000000000000000000000000000000000000000000000000000000081526004016121e7906132b4565b60405180910390fd5b6121f985611fcf565b612238576040517f08c379a000000000000000000000000000000000000000000000000000000000815260040161222f90613434565b60405180910390fd5b600060608673ffffffffffffffffffffffffffffffffffffffff168587604051612262919061309d565b60006040518083038185875af1925050503d806000811461229f576040519150601f19603f3d011682016040523d82523d6000602084013e6122a4565b606091505b50915091506122b48282866122c0565b92505050949350505050565b606083156122d057829050612320565b6000835111156122e35782518084602001fd5b816040517f08c379a00000000000000000000000000000000000000000000000000000000081526004016123179190613171565b60405180910390fd5b9392505050565b828054600181600116156101000203166002900490600052602060002090601f016020900481019282601f1061236857805160ff1916838001178555612396565b82800160010185558215612396579182015b8281111561239557825182559160200191906001019061237a565b5b5090506123a391906123a7565b5090565b6123c991905b808211156123c55760008160009055506001016123ad565b5090565b90565b6000813590506123db8161361b565b92915050565b6000813590506123f081613632565b92915050565b60008135905061240581613649565b92915050565b60008151905061241a81613649565b92915050565b600082601f83011261243157600080fd5b813561244461243f8261349c565b61346f565b9150808252602083016020830185838301111561246057600080fd5b61246b8382846135c8565b50505092915050565b600082601f83011261248557600080fd5b8135612498612493826134c8565b61346f565b915080825260208301602083018583830111156124b457600080fd5b6124bf8382846135c8565b50505092915050565b6000608082840312156124da57600080fd5b6124e4608061346f565b9050600082013567ffffffffffffffff81111561250057600080fd5b61250c84828501612474565b600083015250602082013567ffffffffffffffff81111561252c57600080fd5b61253884828501612474565b602083015250604082013567ffffffffffffffff81111561255857600080fd5b61256484828501612474565b604083015250606082013567ffffffffffffffff81111561258457600080fd5b61259084828501612474565b60608301525092915050565b6000813590506125ab81613660565b92915050565b6000602082840312156125c357600080fd5b60006125d1848285016123cc565b91505092915050565b600080604083850312156125ed57600080fd5b60006125fb858286016123cc565b925050602061260c858286016123cc565b9150509250929050565b60008060006060848603121561262b57600080fd5b6000612639868287016123cc565b935050602061264a868287016123cc565b925050604061265b8682870161259c565b9150509250925092565b6000806000806080858703121561267b57600080fd5b6000612689878288016123cc565b945050602061269a878288016123cc565b93505060406126ab8782880161259c565b925050606085013567ffffffffffffffff8111156126c857600080fd5b6126d487828801612420565b91505092959194509250565b600080604083850312156126f357600080fd5b6000612701858286016123cc565b9250506020612712858286016123e1565b9150509250929050565b6000806040838503121561272f57600080fd5b600061273d858286016123cc565b925050602061274e8582860161259c565b9150509250929050565b60006020828403121561276a57600080fd5b6000612778848285016123f6565b91505092915050565b60006020828403121561279357600080fd5b60006127a18482850161240b565b91505092915050565b600080604083850312156127bd57600080fd5b600083013567ffffffffffffffff8111156127d757600080fd5b6127e3858286016124c8565b925050602083013567ffffffffffffffff81111561280057600080fd5b61280c85828601612474565b9150509250929050565b60006020828403121561282857600080fd5b60006128368482850161259c565b91505092915050565b6000806040838503121561285257600080fd5b60006128608582860161259c565b925050602083013567ffffffffffffffff81111561287d57600080fd5b61288985828601612474565b9150509250929050565b61289c81613554565b82525050565b6128ab81613542565b82525050565b6128ba81613566565b82525050565b60006128cb826134f4565b6128d5818561350a565b93506128e58185602086016135d7565b6128ee8161360a565b840191505092915050565b6000612904826134f4565b61290e818561351b565b935061291e8185602086016135d7565b80840191505092915050565b6000612935826134ff565b61293f8185613526565b935061294f8185602086016135d7565b6129588161360a565b840191505092915050565b600061296e826134ff565b6129788185613537565b93506129888185602086016135d7565b80840191505092915050565b60006129a1602283613526565b91507f456e756d657261626c655365743a20696e646578206f7574206f6620626f756e60008301527f64730000000000000000000000000000000000000000000000000000000000006020830152604082019050919050565b6000612a07602183613526565b91507f4572726f72202d20636f6c6c656374696f6e20616c726561647920657869737460008301527f73000000000000000000000000000000000000000000000000000000000000006020830152604082019050919050565b6000612a6d603283613526565b91507f4552433732313a207472616e7366657220746f206e6f6e20455243373231526560008301527f63656976657220696d706c656d656e74657200000000000000000000000000006020830152604082019050919050565b6000612ad3601c83613526565b91507f4552433732313a20746f6b656e20616c7265616479206d696e746564000000006000830152602082019050919050565b6000612b13602483613526565b91507f4552433732313a207472616e7366657220746f20746865207a65726f2061646460008301527f72657373000000000000000000000000000000000000000000000000000000006020830152604082019050919050565b6000612b79601983613526565b91507f4552433732313a20617070726f766520746f2063616c6c6572000000000000006000830152602082019050919050565b6000612bb9602683613526565b91507f416464726573733a20696e73756666696369656e742062616c616e636520666f60008301527f722063616c6c00000000000000000000000000000000000000000000000000006020830152604082019050919050565b6000612c1f602c83613526565b91507f4552433732313a206f70657261746f7220717565727920666f72206e6f6e657860008301527f697374656e7420746f6b656e00000000000000000000000000000000000000006020830152604082019050919050565b6000612c85603883613526565b91507f4552433732313a20617070726f76652063616c6c6572206973206e6f74206f7760008301527f6e6572206e6f7220617070726f76656420666f7220616c6c00000000000000006020830152604082019050919050565b6000612ceb602a83613526565b91507f4552433732313a2062616c616e636520717565727920666f7220746865207a6560008301527f726f2061646472657373000000000000000000000000000000000000000000006020830152604082019050919050565b6000612d51602283613526565b91507f456e756d657261626c654d61703a20696e646578206f7574206f6620626f756e60008301527f64730000000000000000000000000000000000000000000000000000000000006020830152604082019050919050565b6000612db7602083613526565b91507f4552433732313a206d696e7420746f20746865207a65726f20616464726573736000830152602082019050919050565b6000612df7602c83613526565b91507f4552433732313a20617070726f76656420717565727920666f72206e6f6e657860008301527f697374656e7420746f6b656e00000000000000000000000000000000000000006020830152604082019050919050565b6000612e5d602c83613526565b91507f4552433732314d657461646174613a2055524920736574206f66206e6f6e657860008301527f697374656e7420746f6b656e00000000000000000000000000000000000000006020830152604082019050919050565b6000612ec3602983613526565b91507f4552433732313a207472616e73666572206f6620746f6b656e2074686174206960008301527f73206e6f74206f776e00000000000000000000000000000000000000000000006020830152604082019050919050565b6000612f29602f83613526565b91507f4552433732314d657461646174613a2055524920717565727920666f72206e6f60008301527f6e6578697374656e7420746f6b656e00000000000000000000000000000000006020830152604082019050919050565b6000612f8f602183613526565b91507f4552433732313a20617070726f76616c20746f2063757272656e74206f776e6560008301527f72000000000000000000000000000000000000000000000000000000000000006020830152604082019050919050565b6000612ff5603183613526565b91507f4552433732313a207472616e736665722063616c6c6572206973206e6f74206f60008301527f776e6572206e6f7220617070726f7665640000000000000000000000000000006020830152604082019050919050565b600061305b601d83613526565b91507f416464726573733a2063616c6c20746f206e6f6e2d636f6e74726163740000006000830152602082019050919050565b613097816135be565b82525050565b60006130a982846128f9565b915081905092915050565b60006130c08284612963565b915081905092915050565b60006130d78285612963565b91506130e38284612963565b91508190509392505050565b600060208201905061310460008301846128a2565b92915050565b600060808201905061311f6000830187612893565b61312c60208301866128a2565b613139604083018561308e565b818103606083015261314b81846128c0565b905095945050505050565b600060208201905061316b60008301846128b1565b92915050565b6000602082019050818103600083015261318b818461292a565b905092915050565b600060808201905081810360008301526131ad818761292a565b905081810360208301526131c1818661292a565b905081810360408301526131d5818561292a565b905081810360608301526131e9818461292a565b905095945050505050565b6000602082019050818103600083015261320d81612994565b9050919050565b6000602082019050818103600083015261322d816129fa565b9050919050565b6000602082019050818103600083015261324d81612a60565b9050919050565b6000602082019050818103600083015261326d81612ac6565b9050919050565b6000602082019050818103600083015261328d81612b06565b9050919050565b600060208201905081810360008301526132ad81612b6c565b9050919050565b600060208201905081810360008301526132cd81612bac565b9050919050565b600060208201905081810360008301526132ed81612c12565b9050919050565b6000602082019050818103600083015261330d81612c78565b9050919050565b6000602082019050818103600083015261332d81612cde565b9050919050565b6000602082019050818103600083015261334d81612d44565b9050919050565b6000602082019050818103600083015261336d81612daa565b9050919050565b6000602082019050818103600083015261338d81612dea565b9050919050565b600060208201905081810360008301526133ad81612e50565b9050919050565b600060208201905081810360008301526133cd81612eb6565b9050919050565b600060208201905081810360008301526133ed81612f1c565b9050919050565b6000602082019050818103600083015261340d81612f82565b9050919050565b6000602082019050818103600083015261342d81612fe8565b9050919050565b6000602082019050818103600083015261344d8161304e565b9050919050565b6000602082019050613469600083018461308e565b92915050565b6000604051905081810181811067ffffffffffffffff8211171561349257600080fd5b8060405250919050565b600067ffffffffffffffff8211156134b357600080fd5b601f19601f8301169050602081019050919050565b600067ffffffffffffffff8211156134df57600080fd5b601f19601f8301169050602081019050919050565b600081519050919050565b600081519050919050565b600082825260208201905092915050565b600081905092915050565b600082825260208201905092915050565b600081905092915050565b600061354d8261359e565b9050919050565b600061355f8261359e565b9050919050565b60008115159050919050565b60007fffffffff0000000000000000000000000000000000000000000000000000000082169050919050565b600073ffffffffffffffffffffffffffffffffffffffff82169050919050565b6000819050919050565b82818337600083830152505050565b60005b838110156135f55780820151818401526020810190506135da565b83811115613604576000848401525b50505050565b6000601f19601f8301169050919050565b61362481613542565b811461362f57600080fd5b50565b61363b81613566565b811461364657600080fd5b50565b61365281613572565b811461365d57600080fd5b50565b613669816135be565b811461367457600080fd5b5056fe4552433732313a207472616e7366657220746f206e6f6e20455243373231526563656976657220696d706c656d656e7465724552433732313a206f776e657220717565727920666f72206e6f6e6578697374656e7420746f6b656ea264697066735822122036c76dee995f72c26d6d737c84bd8de2dd3dcd2a7069f35f6f47e580da28ed6d64736f6c63430006060033",
  "immutableReferences": {},
  "source": "// SPDX-License-Identifier: MIT\npragma solidity ^0.6.6;\npragma experimental ABIEncoderV2;\n\nimport \"@openzeppelin/contracts/token/ERC721/ERC721.sol\";\n// import \"@openzeppelin/contracts/access/Ownable.sol\";\nimport \"@openzeppelin/contracts/utils/Strings.sol\";\n\ncontract Collections is ERC721 {\n    using SafeMath for uint256;\n    using Strings for string;\n\n    // array to store nfts\n    struct Collection {\n        string hash;\n        string fileName;\n        string fileType;\n        string date;\n    }\n\n    Collection[] public collections;\n\n    mapping(string => bool) collectionExists;\n\n    constructor() public ERC721(\"Collections\", \"COLLECTIONS\") {}\n\n    function mint(Collection memory _collection, string memory tokenURI)\n        public\n    {\n        require(\n            !collectionExists[_collection.hash],\n            \"Error - collection already exists\"\n        );\n        collections.push(\n            Collection({\n                hash: _collection.hash,\n                fileName: _collection.fileName,\n                fileType: _collection.fileType,\n                date: _collection.date\n            })\n        );\n        uint256 id = collections.length - 1;\n        _safeMint(msg.sender, id);\n        _setTokenURI(id, tokenURI);\n        collectionExists[_collection.hash] = true;\n    }\n\n    function getTokenURI(uint256 tokenId) public view returns (string memory) {\n        return tokenURI(tokenId);\n    }\n\n    function setTokenURI(uint256 tokenId, string memory _tokenURI) public {\n        require(\n            _isApprovedOrOwner(_msgSender(), tokenId),\n            \"ERC721: transfer caller is not owner nor approved\"\n        );\n        _setTokenURI(tokenId, _tokenURI);\n    }\n}\n",
  "sourcePath": "/Users/amaz/Work/amazonyte/contract/contracts/Collections.sol",
  "compiler": {
    "name": "solc",
    "version": "0.6.6+commit.6c089d02.Emscripten.clang"
  },
  "schemaVersion": "3.4.7",
  "updatedAt": "2022-06-11T18:13:12.994Z",
  "networkType": "ethereum",
  "devdoc": {
    "methods": {
      "approve(address,uint256)": {
        "details": "See {IERC721-approve}."
      },
      "balanceOf(address)": {
        "details": "See {IERC721-balanceOf}."
      },
      "baseURI()": {
        "details": "Returns the base URI set via {_setBaseURI}. This will be automatically added as a prefix in {tokenURI} to each token's URI, or to the token ID if no specific URI is set for that token ID."
      },
      "getApproved(uint256)": {
        "details": "See {IERC721-getApproved}."
      },
      "isApprovedForAll(address,address)": {
        "details": "See {IERC721-isApprovedForAll}."
      },
      "name()": {
        "details": "See {IERC721Metadata-name}."
      },
      "ownerOf(uint256)": {
        "details": "See {IERC721-ownerOf}."
      },
      "safeTransferFrom(address,address,uint256)": {
        "details": "See {IERC721-safeTransferFrom}."
      },
      "safeTransferFrom(address,address,uint256,bytes)": {
        "details": "See {IERC721-safeTransferFrom}."
      },
      "setApprovalForAll(address,bool)": {
        "details": "See {IERC721-setApprovalForAll}."
      },
      "supportsInterface(bytes4)": {
        "details": "See {IERC165-supportsInterface}.     * Time complexity O(1), guaranteed to always use less than 30 000 gas."
      },
      "symbol()": {
        "details": "See {IERC721Metadata-symbol}."
      },
      "tokenByIndex(uint256)": {
        "details": "See {IERC721Enumerable-tokenByIndex}."
      },
      "tokenOfOwnerByIndex(address,uint256)": {
        "details": "See {IERC721Enumerable-tokenOfOwnerByIndex}."
      },
      "tokenURI(uint256)": {
        "details": "See {IERC721Metadata-tokenURI}."
      },
      "totalSupply()": {
        "details": "See {IERC721Enumerable-totalSupply}."
      },
      "transferFrom(address,address,uint256)": {
        "details": "See {IERC721-transferFrom}."
      }
    }
  },
  "userdoc": {
    "methods": {}
  }
}