{
  "contractName": "ERC721",
  "abi": [
    {
      "inputs": [],
      "stateMutability": "nonpayable",
      "type": "constructor"
    },
    {
      "anonymous": false,
      "inputs": [
        {
          "indexed": true,
          "internalType": "address",
          "name": "_owner",
          "type": "address"
        },
        {
          "indexed": true,
          "internalType": "address",
          "name": "_approved",
          "type": "address"
        },
        {
          "indexed": true,
          "internalType": "uint256",
          "name": "_tokenId",
          "type": "uint256"
        }
      ],
      "name": "Approval",
      "type": "event"
    },
    {
      "anonymous": false,
      "inputs": [
        {
          "indexed": true,
          "internalType": "address",
          "name": "_from",
          "type": "address"
        },
        {
          "indexed": true,
          "internalType": "address",
          "name": "_to",
          "type": "address"
        },
        {
          "indexed": true,
          "internalType": "uint256",
          "name": "_tokenId",
          "type": "uint256"
        }
      ],
      "name": "Transfer",
      "type": "event"
    },
    {
      "inputs": [
        {
          "internalType": "bytes4",
          "name": "interfaceId",
          "type": "bytes4"
        }
      ],
      "name": "supportsInterface",
      "outputs": [
        {
          "internalType": "bool",
          "name": "",
          "type": "bool"
        }
      ],
      "stateMutability": "view",
      "type": "function"
    },
    {
      "inputs": [
        {
          "internalType": "address",
          "name": "_owner",
          "type": "address"
        }
      ],
      "name": "balanceOf",
      "outputs": [
        {
          "internalType": "uint256",
          "name": "",
          "type": "uint256"
        }
      ],
      "stateMutability": "view",
      "type": "function"
    },
    {
      "inputs": [
        {
          "internalType": "uint256",
          "name": "_tokenId",
          "type": "uint256"
        }
      ],
      "name": "ownerOf",
      "outputs": [
        {
          "internalType": "address",
          "name": "",
          "type": "address"
        }
      ],
      "stateMutability": "view",
      "type": "function"
    },
    {
      "inputs": [
        {
          "internalType": "address",
          "name": "_from",
          "type": "address"
        },
        {
          "internalType": "address",
          "name": "_to",
          "type": "address"
        },
        {
          "internalType": "uint256",
          "name": "_tokenId",
          "type": "uint256"
        }
      ],
      "name": "transferFrom",
      "outputs": [],
      "stateMutability": "nonpayable",
      "type": "function"
    },
    {
      "inputs": [
        {
          "internalType": "address",
          "name": "_to",
          "type": "address"
        },
        {
          "internalType": "uint256",
          "name": "tokenId",
          "type": "uint256"
        }
      ],
      "name": "approve",
      "outputs": [],
      "stateMutability": "nonpayable",
      "type": "function"
    },
    {
      "inputs": [],
      "name": "baseURI",
      "outputs": [
        {
          "internalType": "string",
          "name": "",
          "type": "string"
        }
      ],
      "stateMutability": "view",
      "type": "function"
    },
    {
      "inputs": [
        {
          "internalType": "uint256",
          "name": "tokenId",
          "type": "uint256"
        }
      ],
      "name": "tokenURI",
      "outputs": [
        {
          "internalType": "string",
          "name": "",
          "type": "string"
        }
      ],
      "stateMutability": "view",
      "type": "function"
    }
  ],
  "bytecode": "0x60806040523480156200001157600080fd5b50620000437f01ffc9a7a5cef8baa21ed3c5c0d7e23accb804b619e9333b597f47a0d84076e2620000be60201b60201c565b620000b87f22c82707ba960a14c7592ffb6b8cfaa073fed0048a84cc7fa41f6b5bd8e7f2e47f3a6eb71757dfc6e784c1459d26270140c2c147d95ca985c80026fc5301c3eca17f8a7e378434598edc36d108689a030cbc9d7d465de4f74c71bae1028eed6a881b1818620000be60201b60201c565b62000218565b63ffffffff60e01b817bffffffffffffffffffffffffffffffffffffffffffffffffffffffff19160362000129576040517f08c379a00000000000000000000000000000000000000000000000000000000081526004016200012090620001f6565b60405180910390fd5b6001600080837bffffffffffffffffffffffffffffffffffffffffffffffffffffffff19167bffffffffffffffffffffffffffffffffffffffffffffffffffffffff1916815260200190815260200160002060006101000a81548160ff02191690831515021790555050565b600082825260208201905092915050565b7f696e76616c696420696e74657266616365207265717565737400000000000000600082015250565b6000620001de60198362000195565b9150620001eb82620001a6565b602082019050919050565b600060208201905081810360008301526200021181620001cf565b9050919050565b6117e880620002286000396000f3fe608060405234801561001057600080fd5b506004361061007d5760003560e01c80636352211e1161005b5780636352211e146100ea5780636c0360eb1461011a57806370a0823114610138578063c87b56dd146101685761007d565b806301ffc9a714610082578063095ea7b3146100b257806323b872dd146100ce575b600080fd5b61009c60048036038101906100979190610d36565b610198565b6040516100a99190610d7e565b60405180910390f35b6100cc60048036038101906100c79190610e2d565b6101ff565b005b6100e860048036038101906100e39190610e6d565b61039a565b005b61010460048036038101906100ff9190610ec0565b6103bd565b6040516101119190610efc565b60405180910390f35b61012261046e565b60405161012f9190610fb0565b60405180910390f35b610152600480360381019061014d9190610fd2565b610500565b60405161015f919061100e565b60405180910390f35b610182600480360381019061017d9190610ec0565b6105be565b60405161018f9190610fb0565b60405180910390f35b6000806000837bffffffffffffffffffffffffffffffffffffffffffffffffffffffff19167bffffffffffffffffffffffffffffffffffffffffffffffffffffffff1916815260200190815260200160002060009054906101000a900460ff169050919050565b600061020a826103bd565b90508073ffffffffffffffffffffffffffffffffffffffff168373ffffffffffffffffffffffffffffffffffffffff160361027a576040517f08c379a00000000000000000000000000000000000000000000000000000000081526004016102719061109b565b60405180910390fd5b8073ffffffffffffffffffffffffffffffffffffffff163373ffffffffffffffffffffffffffffffffffffffff16146102e8576040517f08c379a00000000000000000000000000000000000000000000000000000000081526004016102df9061112d565b60405180910390fd5b826003600084815260200190815260200160002060006101000a81548173ffffffffffffffffffffffffffffffffffffffff021916908373ffffffffffffffffffffffffffffffffffffffff160217905550818373ffffffffffffffffffffffffffffffffffffffff168273ffffffffffffffffffffffffffffffffffffffff167f8c5be1e5ebec7d5bd14f71427d1e84f3dd0314c0f7b2291e5b200ac8c7c3b92560405160405180910390a4505050565b6103a43382610730565b6103ad57600080fd5b6103b88383836107bf565b505050565b6000806001600084815260200190815260200160002060009054906101000a900473ffffffffffffffffffffffffffffffffffffffff169050600073ffffffffffffffffffffffffffffffffffffffff168173ffffffffffffffffffffffffffffffffffffffff1603610465576040517f08c379a000000000000000000000000000000000000000000000000000000000815260040161045c906111bf565b60405180910390fd5b80915050919050565b60606005805461047d9061120e565b80601f01602080910402602001604051908101604052809291908181526020018280546104a99061120e565b80156104f65780601f106104cb576101008083540402835291602001916104f6565b820191906000526020600020905b8154815290600101906020018083116104d957829003601f168201915b5050505050905090565b60008073ffffffffffffffffffffffffffffffffffffffff168273ffffffffffffffffffffffffffffffffffffffff1603610570576040517f08c379a0000000000000000000000000000000000000000000000000000000008152600401610567906111bf565b60405180910390fd5b6105b7600260008473ffffffffffffffffffffffffffffffffffffffff1673ffffffffffffffffffffffffffffffffffffffff1681526020019081526020016000206109e4565b9050919050565b60606105c9826109f2565b610608576040517f08c379a00000000000000000000000000000000000000000000000000000000081526004016105ff906112b1565b60405180910390fd5b60006004600084815260200190815260200160002080546106289061120e565b80601f01602080910402602001604051908101604052809291908181526020018280546106549061120e565b80156106a15780601f10610676576101008083540402835291602001916106a1565b820191906000526020600020905b81548152906001019060200180831161068457829003601f168201915b5050505050905060006106b261046e565b905060008151036106c757819250505061072b565b6000825111156106fc5780826040516020016106e492919061130d565b6040516020818303038152906040529250505061072b565b8061070685610a64565b60405160200161071792919061130d565b604051602081830303815290604052925050505b919050565b600061073b826109f2565b61077a576040517f08c379a00000000000000000000000000000000000000000000000000000000081526004016107719061137d565b60405180910390fd5b6000610785836103bd565b90508073ffffffffffffffffffffffffffffffffffffffff168473ffffffffffffffffffffffffffffffffffffffff161491505092915050565b600073ffffffffffffffffffffffffffffffffffffffff168273ffffffffffffffffffffffffffffffffffffffff160361082e576040517f08c379a00000000000000000000000000000000000000000000000000000000081526004016108259061140f565b60405180910390fd5b8273ffffffffffffffffffffffffffffffffffffffff1661084e826103bd565b73ffffffffffffffffffffffffffffffffffffffff16146108a4576040517f08c379a000000000000000000000000000000000000000000000000000000000815260040161089b906114a1565b60405180910390fd5b6108eb600260008573ffffffffffffffffffffffffffffffffffffffff1673ffffffffffffffffffffffffffffffffffffffff168152602001908152602001600020610bd6565b610932600260008473ffffffffffffffffffffffffffffffffffffffff1673ffffffffffffffffffffffffffffffffffffffff168152602001908152602001600020610bf9565b816001600083815260200190815260200160002060006101000a81548173ffffffffffffffffffffffffffffffffffffffff021916908373ffffffffffffffffffffffffffffffffffffffff160217905550808273ffffffffffffffffffffffffffffffffffffffff168473ffffffffffffffffffffffffffffffffffffffff167fddf252ad1be2c89b69c2b068fc378daa952ba7f163c4a11628f55a4df523b3ef60405160405180910390a4505050565b600081600001549050919050565b6000806001600084815260200190815260200160002060009054906101000a900473ffffffffffffffffffffffffffffffffffffffff169050600073ffffffffffffffffffffffffffffffffffffffff168173ffffffffffffffffffffffffffffffffffffffff161415915050919050565b606060008203610aab576040518060400160405280600181526020017f30000000000000000000000000000000000000000000000000000000000000008152509050610bd1565b600082905060005b60008214610add578080610ac6906114f0565b915050600a82610ad69190611567565b9150610ab3565b60008167ffffffffffffffff811115610af957610af8611598565b5b6040519080825280601f01601f191660200182016040528015610b2b5781602001600182028036833780820191505090505b5090506000600183610b3d91906115c7565b90508593505b60008414610bc957600a84610b5891906115fb565b6030610b64919061162c565b60f81b828280610b7390611682565b935081518110610b8657610b856116ab565b5b60200101907effffffffffffffffffffffffffffffffffffffffffffffffffffffffffffff1916908160001a905350600a84610bc29190611567565b9350610b43565b819450505050505b919050565b610bee60018260000154610c1c90919063ffffffff16565b816000018190555050565b610c1160018260000154610c7b90919063ffffffff16565b816000018190555050565b600082821115610c61576040517f08c379a0000000000000000000000000000000000000000000000000000000008152600401610c5890611726565b60405180910390fd5b60008284610c6f91906115c7565b90508091505092915050565b6000808284610c8a919061162c565b905083811015610ccf576040517f08c379a0000000000000000000000000000000000000000000000000000000008152600401610cc690611792565b60405180910390fd5b8091505092915050565b600080fd5b60007fffffffff0000000000000000000000000000000000000000000000000000000082169050919050565b610d1381610cde565b8114610d1e57600080fd5b50565b600081359050610d3081610d0a565b92915050565b600060208284031215610d4c57610d4b610cd9565b5b6000610d5a84828501610d21565b91505092915050565b60008115159050919050565b610d7881610d63565b82525050565b6000602082019050610d936000830184610d6f565b92915050565b600073ffffffffffffffffffffffffffffffffffffffff82169050919050565b6000610dc482610d99565b9050919050565b610dd481610db9565b8114610ddf57600080fd5b50565b600081359050610df181610dcb565b92915050565b6000819050919050565b610e0a81610df7565b8114610e1557600080fd5b50565b600081359050610e2781610e01565b92915050565b60008060408385031215610e4457610e43610cd9565b5b6000610e5285828601610de2565b9250506020610e6385828601610e18565b9150509250929050565b600080600060608486031215610e8657610e85610cd9565b5b6000610e9486828701610de2565b9350506020610ea586828701610de2565b9250506040610eb686828701610e18565b9150509250925092565b600060208284031215610ed657610ed5610cd9565b5b6000610ee484828501610e18565b91505092915050565b610ef681610db9565b82525050565b6000602082019050610f116000830184610eed565b92915050565b600081519050919050565b600082825260208201905092915050565b60005b83811015610f51578082015181840152602081019050610f36565b83811115610f60576000848401525b50505050565b6000601f19601f8301169050919050565b6000610f8282610f17565b610f8c8185610f22565b9350610f9c818560208601610f33565b610fa581610f66565b840191505092915050565b60006020820190508181036000830152610fca8184610f77565b905092915050565b600060208284031215610fe857610fe7610cd9565b5b6000610ff684828501610de2565b91505092915050565b61100881610df7565b82525050565b60006020820190506110236000830184610fff565b92915050565b7f4572726f72202d20617070726f76616c20746f2063757272656e74206f776e6560008201527f7200000000000000000000000000000000000000000000000000000000000000602082015250565b6000611085602183610f22565b915061109082611029565b604082019050919050565b600060208201905081810360008301526110b481611078565b9050919050565b7f43757272656e742063616c6c6572206973206e6f7420746865206f776e65722060008201527f6f662074686520746f6b656e0000000000000000000000000000000000000000602082015250565b6000611117602c83610f22565b9150611122826110bb565b604082019050919050565b600060208201905081810360008301526111468161110a565b9050919050565b7f6f776e657220717565727920666f72206e6f6e2d6578697374656e7420746f6b60008201527f656e000000000000000000000000000000000000000000000000000000000000602082015250565b60006111a9602283610f22565b91506111b48261114d565b604082019050919050565b600060208201905081810360008301526111d88161119c565b9050919050565b7f4e487b7100000000000000000000000000000000000000000000000000000000600052602260045260246000fd5b6000600282049050600182168061122657607f821691505b602082108103611239576112386111df565b5b50919050565b7f4552433732314d657461646174613a2055524920717565727920666f72206e6f60008201527f6e6578697374656e7420746f6b656e0000000000000000000000000000000000602082015250565b600061129b602f83610f22565b91506112a68261123f565b604082019050919050565b600060208201905081810360008301526112ca8161128e565b9050919050565b600081905092915050565b60006112e782610f17565b6112f181856112d1565b9350611301818560208601610f33565b80840191505092915050565b600061131982856112dc565b915061132582846112dc565b91508190509392505050565b7f746f6b656e20646f6573206e6f74206578697473000000000000000000000000600082015250565b6000611367601483610f22565b915061137282611331565b602082019050919050565b600060208201905081810360008301526113968161135a565b9050919050565b7f4572726f72202d20455243373231205472617366657220746f20746865207a6560008201527f726f206164647265737300000000000000000000000000000000000000000000602082015250565b60006113f9602a83610f22565b91506114048261139d565b604082019050919050565b60006020820190508181036000830152611428816113ec565b9050919050565b7f547279696e6720746f207472616e73666572206120746f6b656e20746865206160008201527f64647265737320646f6573206e6f74206f776e00000000000000000000000000602082015250565b600061148b603383610f22565b91506114968261142f565b604082019050919050565b600060208201905081810360008301526114ba8161147e565b9050919050565b7f4e487b7100000000000000000000000000000000000000000000000000000000600052601160045260246000fd5b60006114fb82610df7565b91507fffffffffffffffffffffffffffffffffffffffffffffffffffffffffffffffff820361152d5761152c6114c1565b5b600182019050919050565b7f4e487b7100000000000000000000000000000000000000000000000000000000600052601260045260246000fd5b600061157282610df7565b915061157d83610df7565b92508261158d5761158c611538565b5b828204905092915050565b7f4e487b7100000000000000000000000000000000000000000000000000000000600052604160045260246000fd5b60006115d282610df7565b91506115dd83610df7565b9250828210156115f0576115ef6114c1565b5b828203905092915050565b600061160682610df7565b915061161183610df7565b92508261162157611620611538565b5b828206905092915050565b600061163782610df7565b915061164283610df7565b9250827fffffffffffffffffffffffffffffffffffffffffffffffffffffffffffffffff03821115611677576116766114c1565b5b828201905092915050565b600061168d82610df7565b9150600082036116a05761169f6114c1565b5b600182039050919050565b7f4e487b7100000000000000000000000000000000000000000000000000000000600052603260045260246000fd5b7f536166654d6174683a205375627472616374696f6e204f766572666c6f770000600082015250565b6000611710601e83610f22565b915061171b826116da565b602082019050919050565b6000602082019050818103600083015261173f81611703565b9050919050565b7f536166654d6174683a204164646974696f6e204f766572666c6f770000000000600082015250565b600061177c601b83610f22565b915061178782611746565b602082019050919050565b600060208201905081810360008301526117ab8161176f565b905091905056fea26469706673582212204cad5095de5272aecd58f2d039908f773489ff9d1078645405d031a71dbe51a164736f6c634300080d0033",
  "immutableReferences": {},
  "source": "// SPDX-License-Identifier: MIT\npragma solidity >=0.4.22 <0.9.0;\n\nimport \"./ERC165.sol\";\nimport \"./interfaces/IERC721.sol\";\nimport \"./libraries/Counters.sol\";\nimport \"./libraries/Strings.sol\";\n\n/************************************************************************************************\nbuilding out the minting function\na. nft to point to an address \nb. keep track of the token ids\nc. keep track of token owner addresses to token ids\nd. keep track of how many tokens an owner address has\ne. create an event that emits a transfer log - contract address, where it is being minted to, the id\n ************************************************************************************************/\n\ncontract ERC721 is ERC165, IERC721 {\n    using SafeMath for uint256;\n    using Counters for Counters.Counter;\n    using Strings for uint256;\n    // mapping from tokenid to owner\n    mapping(uint256 => address) private _tokenOwner;\n    // mapping from owner to number of owned tokens\n    mapping(address => Counters.Counter) private _OwnedTokensCount;\n    // mapping from tokenId to approved address\n    mapping(uint256 => address) private _tokenApprovals;\n    // Optional mapping for token URIs\n    mapping(uint256 => string) private _tokenURIs;\n    // Base URI\n    string private _baseURI;\n\n    constructor() {\n        _registerInterface(\n            bytes4(\n                keccak256(\"balanceOf(bytes4)\") ^\n                    keccak256(\"ownerOf(bytes4)\") ^\n                    keccak256(\"transferFrom(bytes4)\")\n            )\n        );\n    }\n\n    function balanceOf(address _owner) public view override returns (uint256) {\n        require(_owner != address(0), \"owner query for non-existent token\");\n        return _OwnedTokensCount[_owner].current();\n    }\n\n    // @notice Find the owner of an NFT\n    // @dev NFTs assigned to zero address are considered invalid, and queries\n    //  about them do throw.\n    // @param _tokenId The identifier for an NFT\n    // @return The address of the owner of the NFT\n    function ownerOf(uint256 _tokenId) public view override returns (address) {\n        address owner = _tokenOwner[_tokenId];\n        require(owner != address(0), \"owner query for non-existent token\");\n        return owner;\n    }\n\n    function _exists(uint256 tokenId) internal view returns (bool) {\n        address owner = _tokenOwner[tokenId];\n        // return truthniess the address is not zero\n        return owner != address(0);\n    }\n\n    function _mint(address to, uint256 tokenId) internal virtual {\n        // requires the address it not zero\n        require(to != address(0), \"ERC721: minting to the zero address\");\n        // require token not exists\n        require(!_exists(tokenId), \"ERC721: minting to the zero address\");\n        // add a new address with tokenid for minting\n        _tokenOwner[tokenId] = to;\n        // track address's minting count\n        _OwnedTokensCount[to].increment();\n\n        emit Transfer(address(0), to, tokenId);\n    }\n\n    // @notice Transfer ownership of an NFT -- THE CALLER IS RESPONSIBLE\n    //  TO CONFIRM THAT `_to` IS CAPABLE OF RECEIVING NFTS OR ELSE\n    //  THEY MAY BE PERMANENTLY LOST\n    // @dev Throws unless `msg.sender` is the current owner, an authorized\n    //  operator, or the approved address for this NFT. Throws if `_from` is\n    //  not the current owner. Throws if `_to` is the zero address. Throws if\n    //  `_tokenId` is not a valid NFT.\n    // @param _from The current owner of the NFT\n    // @param _to The new owner\n    // @param _tokenId The NFT to transfer\n    function _transferFrom(\n        address _from,\n        address _to,\n        uint256 _tokenId\n    ) internal {\n        // 1. add tokenId to the address receiving the tokenId\n        // 2. update the balance of the address _from token\n        // 3. update the balance of the address _to\n        // 4. add safe fucntionality\n        // a. require receiving address is not a zero addresse\n        // b. require the address transfering then token actually owns the token\n\n        require(\n            _to != address(0),\n            \"Error - ERC721 Trasfer to the zero address\"\n        );\n        require(\n            ownerOf(_tokenId) == _from,\n            \"Trying to transfer a token the address does not own\"\n        );\n\n        _OwnedTokensCount[_from].decrement();\n        _OwnedTokensCount[_to].increment();\n\n        _tokenOwner[_tokenId] = _to;\n\n        emit Transfer(_from, _to, _tokenId);\n    }\n\n    function transferFrom(\n        address _from,\n        address _to,\n        uint256 _tokenId\n    ) public override {\n        require(isApprovedOrOwner(msg.sender, _tokenId));\n        _transferFrom(_from, _to, _tokenId);\n    }\n\n    // 1. require the person approving is the owner\n    // 2. approving an address to a tokenid\n    // 3. require we cannot approve sending tokens to ourselves\n    // 4. update the map of the approval addresses\n    function approve(address _to, uint256 tokenId) public {\n        address owner = ownerOf(tokenId);\n        require(_to != owner, \"Error - approval to current owner\");\n        require(\n            msg.sender == owner,\n            \"Current caller is not the owner of the token\"\n        );\n        _tokenApprovals[tokenId] = _to;\n        emit Approval(owner, _to, tokenId);\n    }\n\n    function isApprovedOrOwner(address spender, uint256 tokenId)\n        internal\n        view\n        returns (bool)\n    {\n        require(_exists(tokenId), \"token does not exits\");\n        address owner = ownerOf(tokenId);\n        return (spender == owner);\n    }\n\n    /**\n     * @dev Sets `_tokenURI` as the tokenURI of `tokenId`.\n     *\n     * Requirements:\n     *\n     * - `tokenId` must exist.\n     */\n    function _setTokenURI(uint256 tokenId, string memory _tokenURI)\n        internal\n        virtual\n    {\n        require(\n            _exists(tokenId),\n            \"ERC721Metadata: URI set of nonexistent token\"\n        );\n        _tokenURIs[tokenId] = _tokenURI;\n    }\n\n    /**\n     * @dev Returns the base URI set via {_setBaseURI}. This will be\n     * automatically added as a prefix in {tokenURI} to each token's URI, or\n     * to the token ID if no specific URI is set for that token ID.\n     */\n    function baseURI() public view virtual returns (string memory) {\n        return _baseURI;\n    }\n\n    /**\n     * @dev See {IERC721Metadata-tokenURI}.\n     */\n    function tokenURI(uint256 tokenId)\n        public\n        view\n        virtual\n        override\n        returns (string memory)\n    {\n        require(\n            _exists(tokenId),\n            \"ERC721Metadata: URI query for nonexistent token\"\n        );\n\n        string memory _tokenURI = _tokenURIs[tokenId];\n        string memory base = baseURI();\n\n        // If there is no base URI, return the token URI.\n        if (bytes(base).length == 0) {\n            return _tokenURI;\n        }\n        // If both are set, concatenate the baseURI and tokenURI (via abi.encodePacked).\n        if (bytes(_tokenURI).length > 0) {\n            return string(abi.encodePacked(base, _tokenURI));\n        }\n        // If there is a baseURI but no tokenURI, concatenate the tokenID to the baseURI.\n        return string(abi.encodePacked(base, tokenId.toString()));\n    }\n}\n",
  "sourcePath": "/Users/amaz/Work/amazonyte/contract/contracts/ERC721.sol",
  "compiler": {
    "name": "solc",
    "version": "0.8.13+commit.abaa5c0e.Emscripten.clang"
  },
  "schemaVersion": "3.4.7",
  "updatedAt": "2022-06-11T17:11:42.648Z",
  "devdoc": {
    "kind": "dev",
    "methods": {
      "baseURI()": {
        "details": "Returns the base URI set via {_setBaseURI}. This will be automatically added as a prefix in {tokenURI} to each token's URI, or to the token ID if no specific URI is set for that token ID."
      },
      "tokenURI(uint256)": {
        "details": "See {IERC721Metadata-tokenURI}."
      }
    },
    "version": 1
  },
  "userdoc": {
    "kind": "user",
    "methods": {},
    "version": 1
  }
}