{
  "contractName": "ERC721Connector",
  "abi": [
    {
      "inputs": [
        {
          "internalType": "string",
          "name": "name",
          "type": "string"
        },
        {
          "internalType": "string",
          "name": "symbol",
          "type": "string"
        }
      ],
      "stateMutability": "nonpayable",
      "type": "constructor"
    },
    {
      "anonymous": false,
      "inputs": [
        {
          "indexed": true,
          "internalType": "address",
          "name": "_owner",
          "type": "address"
        },
        {
          "indexed": true,
          "internalType": "address",
          "name": "_approved",
          "type": "address"
        },
        {
          "indexed": true,
          "internalType": "uint256",
          "name": "_tokenId",
          "type": "uint256"
        }
      ],
      "name": "Approval",
      "type": "event"
    },
    {
      "anonymous": false,
      "inputs": [
        {
          "indexed": true,
          "internalType": "address",
          "name": "_from",
          "type": "address"
        },
        {
          "indexed": true,
          "internalType": "address",
          "name": "_to",
          "type": "address"
        },
        {
          "indexed": true,
          "internalType": "uint256",
          "name": "_tokenId",
          "type": "uint256"
        }
      ],
      "name": "Transfer",
      "type": "event"
    },
    {
      "inputs": [
        {
          "internalType": "address",
          "name": "_to",
          "type": "address"
        },
        {
          "internalType": "uint256",
          "name": "tokenId",
          "type": "uint256"
        }
      ],
      "name": "approve",
      "outputs": [],
      "stateMutability": "nonpayable",
      "type": "function"
    },
    {
      "inputs": [
        {
          "internalType": "address",
          "name": "_owner",
          "type": "address"
        }
      ],
      "name": "balanceOf",
      "outputs": [
        {
          "internalType": "uint256",
          "name": "",
          "type": "uint256"
        }
      ],
      "stateMutability": "view",
      "type": "function"
    },
    {
      "inputs": [],
      "name": "baseURI",
      "outputs": [
        {
          "internalType": "string",
          "name": "",
          "type": "string"
        }
      ],
      "stateMutability": "view",
      "type": "function"
    },
    {
      "inputs": [],
      "name": "name",
      "outputs": [
        {
          "internalType": "string",
          "name": "",
          "type": "string"
        }
      ],
      "stateMutability": "view",
      "type": "function"
    },
    {
      "inputs": [
        {
          "internalType": "uint256",
          "name": "_tokenId",
          "type": "uint256"
        }
      ],
      "name": "ownerOf",
      "outputs": [
        {
          "internalType": "address",
          "name": "",
          "type": "address"
        }
      ],
      "stateMutability": "view",
      "type": "function"
    },
    {
      "inputs": [
        {
          "internalType": "bytes4",
          "name": "interfaceId",
          "type": "bytes4"
        }
      ],
      "name": "supportsInterface",
      "outputs": [
        {
          "internalType": "bool",
          "name": "",
          "type": "bool"
        }
      ],
      "stateMutability": "view",
      "type": "function"
    },
    {
      "inputs": [],
      "name": "symbol",
      "outputs": [
        {
          "internalType": "string",
          "name": "",
          "type": "string"
        }
      ],
      "stateMutability": "view",
      "type": "function"
    },
    {
      "inputs": [
        {
          "internalType": "uint256",
          "name": "index",
          "type": "uint256"
        }
      ],
      "name": "tokenByIndex",
      "outputs": [
        {
          "internalType": "uint256",
          "name": "",
          "type": "uint256"
        }
      ],
      "stateMutability": "view",
      "type": "function"
    },
    {
      "inputs": [
        {
          "internalType": "address",
          "name": "owner",
          "type": "address"
        },
        {
          "internalType": "uint256",
          "name": "index",
          "type": "uint256"
        }
      ],
      "name": "tokenOfOwnerByIndex",
      "outputs": [
        {
          "internalType": "uint256",
          "name": "",
          "type": "uint256"
        }
      ],
      "stateMutability": "view",
      "type": "function"
    },
    {
      "inputs": [
        {
          "internalType": "uint256",
          "name": "tokenId",
          "type": "uint256"
        }
      ],
      "name": "tokenURI",
      "outputs": [
        {
          "internalType": "string",
          "name": "",
          "type": "string"
        }
      ],
      "stateMutability": "view",
      "type": "function"
    },
    {
      "inputs": [],
      "name": "totalSupply",
      "outputs": [
        {
          "internalType": "uint256",
          "name": "",
          "type": "uint256"
        }
      ],
      "stateMutability": "view",
      "type": "function"
    },
    {
      "inputs": [
        {
          "internalType": "address",
          "name": "_from",
          "type": "address"
        },
        {
          "internalType": "address",
          "name": "_to",
          "type": "address"
        },
        {
          "internalType": "uint256",
          "name": "_tokenId",
          "type": "uint256"
        }
      ],
      "name": "transferFrom",
      "outputs": [],
      "stateMutability": "nonpayable",
      "type": "function"
    }
  ],
  "bytecode": "0x60806040523480156200001157600080fd5b506040516200228638038062002286833981810160405281019062000037919062000507565b81816200006a7f01ffc9a7a5cef8baa21ed3c5c0d7e23accb804b619e9333b597f47a0d84076e2620001e360201b60201c565b620000bd7f13b182f4c0e5b2efbac0efe6cf6d756c8b89f4b79c5707a043ed9ea740574ee97f7feaf19471f34a12a7eaf32d5f3090aa2260ea8624dc8a138e74e0bf0f62307618620001e360201b60201c565b8160019080519060200190620000d5929190620002ba565b508060029080519060200190620000ee929190620002ba565b505050620001667f22c82707ba960a14c7592ffb6b8cfaa073fed0048a84cc7fa41f6b5bd8e7f2e47f3a6eb71757dfc6e784c1459d26270140c2c147d95ca985c80026fc5301c3eca17f8a7e378434598edc36d108689a030cbc9d7d465de4f74c71bae1028eed6a881b1818620001e360201b60201c565b620001db7f8230223f691b981717299fae9549350a0d894555723531f02108b1f522c1a7977f6da5e1284143cdd2d15038a59bde3be031250f00291d64494c12d967b3a4e0c37fc53637662700e6c65104059db8bba34439e0c32483ab7c34e3ccae52c73954951818620001e360201b60201c565b505062000673565b63ffffffff60e01b817bffffffffffffffffffffffffffffffffffffffffffffffffffffffff1916036200024e576040517f08c379a00000000000000000000000000000000000000000000000000000000081526004016200024590620005ed565b60405180910390fd5b6001600080837bffffffffffffffffffffffffffffffffffffffffffffffffffffffff19167bffffffffffffffffffffffffffffffffffffffffffffffffffffffff1916815260200190815260200160002060006101000a81548160ff02191690831515021790555050565b828054620002c8906200063e565b90600052602060002090601f016020900481019282620002ec576000855562000338565b82601f106200030757805160ff191683800117855562000338565b8280016001018555821562000338579182015b82811115620003375782518255916020019190600101906200031a565b5b5090506200034791906200034b565b5090565b5b80821115620003665760008160009055506001016200034c565b5090565b6000604051905090565b600080fd5b600080fd5b600080fd5b600080fd5b6000601f19601f8301169050919050565b7f4e487b7100000000000000000000000000000000000000000000000000000000600052604160045260246000fd5b620003d38262000388565b810181811067ffffffffffffffff82111715620003f557620003f462000399565b5b80604052505050565b60006200040a6200036a565b9050620004188282620003c8565b919050565b600067ffffffffffffffff8211156200043b576200043a62000399565b5b620004468262000388565b9050602081019050919050565b60005b838110156200047357808201518184015260208101905062000456565b8381111562000483576000848401525b50505050565b6000620004a06200049a846200041d565b620003fe565b905082815260208101848484011115620004bf57620004be62000383565b5b620004cc84828562000453565b509392505050565b600082601f830112620004ec57620004eb6200037e565b5b8151620004fe84826020860162000489565b91505092915050565b6000806040838503121562000521576200052062000374565b5b600083015167ffffffffffffffff81111562000542576200054162000379565b5b6200055085828601620004d4565b925050602083015167ffffffffffffffff81111562000574576200057362000379565b5b6200058285828601620004d4565b9150509250929050565b600082825260208201905092915050565b7f696e76616c696420696e74657266616365207265717565737400000000000000600082015250565b6000620005d56019836200058c565b9150620005e2826200059d565b602082019050919050565b600060208201905081810360008301526200060881620005c6565b9050919050565b7f4e487b7100000000000000000000000000000000000000000000000000000000600052602260045260246000fd5b600060028204905060018216806200065757607f821691505b6020821081036200066d576200066c6200060f565b5b50919050565b611c0380620006836000396000f3fe608060405234801561001057600080fd5b50600436106100b45760003560e01c80634f6ccce7116100715780634f6ccce71461018d5780636352211e146101bd5780636c0360eb146101ed57806370a082311461020b57806395d89b411461023b578063c87b56dd14610259576100b4565b806301ffc9a7146100b957806306fdde03146100e9578063095ea7b31461010757806318160ddd1461012357806323b872dd146101415780632f745c591461015d575b600080fd5b6100d360048036038101906100ce9190611079565b610289565b6040516100e091906110c1565b60405180910390f35b6100f16102f0565b6040516100fe9190611175565b60405180910390f35b610121600480360381019061011c919061122b565b610382565b005b61012b61051d565b604051610138919061127a565b60405180910390f35b61015b60048036038101906101569190611295565b61052a565b005b6101776004803603810190610172919061122b565b61054d565b604051610184919061127a565b60405180910390f35b6101a760048036038101906101a291906112e8565b6105fd565b6040516101b4919061127a565b60405180910390f35b6101d760048036038101906101d291906112e8565b61066e565b6040516101e49190611324565b60405180910390f35b6101f561071f565b6040516102029190611175565b60405180910390f35b6102256004803603810190610220919061133f565b6107b1565b604051610232919061127a565b60405180910390f35b61024361086f565b6040516102509190611175565b60405180910390f35b610273600480360381019061026e91906112e8565b610901565b6040516102809190611175565b60405180910390f35b6000806000837bffffffffffffffffffffffffffffffffffffffffffffffffffffffff19167bffffffffffffffffffffffffffffffffffffffffffffffffffffffff1916815260200190815260200160002060009054906101000a900460ff169050919050565b6060600180546102ff9061139b565b80601f016020809104026020016040519081016040528092919081815260200182805461032b9061139b565b80156103785780601f1061034d57610100808354040283529160200191610378565b820191906000526020600020905b81548152906001019060200180831161035b57829003601f168201915b5050505050905090565b600061038d8261066e565b90508073ffffffffffffffffffffffffffffffffffffffff168373ffffffffffffffffffffffffffffffffffffffff16036103fd576040517f08c379a00000000000000000000000000000000000000000000000000000000081526004016103f49061143e565b60405180910390fd5b8073ffffffffffffffffffffffffffffffffffffffff163373ffffffffffffffffffffffffffffffffffffffff161461046b576040517f08c379a0000000000000000000000000000000000000000000000000000000008152600401610462906114d0565b60405180910390fd5b826005600084815260200190815260200160002060006101000a81548173ffffffffffffffffffffffffffffffffffffffff021916908373ffffffffffffffffffffffffffffffffffffffff160217905550818373ffffffffffffffffffffffffffffffffffffffff168273ffffffffffffffffffffffffffffffffffffffff167f8c5be1e5ebec7d5bd14f71427d1e84f3dd0314c0f7b2291e5b200ac8c7c3b92560405160405180910390a4505050565b6000600880549050905090565b6105343382610a73565b61053d57600080fd5b610548838383610b02565b505050565b6000610558836107b1565b8210610599576040517f08c379a00000000000000000000000000000000000000000000000000000000081526004016105909061153c565b60405180910390fd5b600a60008473ffffffffffffffffffffffffffffffffffffffff1673ffffffffffffffffffffffffffffffffffffffff16815260200190815260200160002082815481106105ea576105e961155c565b5b9060005260206000200154905092915050565b600061060761051d565b8210610648576040517f08c379a000000000000000000000000000000000000000000000000000000000815260040161063f906115d7565b60405180910390fd5b6008828154811061065c5761065b61155c565b5b90600052602060002001549050919050565b6000806003600084815260200190815260200160002060009054906101000a900473ffffffffffffffffffffffffffffffffffffffff169050600073ffffffffffffffffffffffffffffffffffffffff168173ffffffffffffffffffffffffffffffffffffffff1603610716576040517f08c379a000000000000000000000000000000000000000000000000000000000815260040161070d90611669565b60405180910390fd5b80915050919050565b60606007805461072e9061139b565b80601f016020809104026020016040519081016040528092919081815260200182805461075a9061139b565b80156107a75780601f1061077c576101008083540402835291602001916107a7565b820191906000526020600020905b81548152906001019060200180831161078a57829003601f168201915b5050505050905090565b60008073ffffffffffffffffffffffffffffffffffffffff168273ffffffffffffffffffffffffffffffffffffffff1603610821576040517f08c379a000000000000000000000000000000000000000000000000000000000815260040161081890611669565b60405180910390fd5b610868600460008473ffffffffffffffffffffffffffffffffffffffff1673ffffffffffffffffffffffffffffffffffffffff168152602001908152602001600020610d27565b9050919050565b60606002805461087e9061139b565b80601f01602080910402602001604051908101604052809291908181526020018280546108aa9061139b565b80156108f75780601f106108cc576101008083540402835291602001916108f7565b820191906000526020600020905b8154815290600101906020018083116108da57829003601f168201915b5050505050905090565b606061090c82610d35565b61094b576040517f08c379a0000000000000000000000000000000000000000000000000000000008152600401610942906116fb565b60405180910390fd5b600060066000848152602001908152602001600020805461096b9061139b565b80601f01602080910402602001604051908101604052809291908181526020018280546109979061139b565b80156109e45780601f106109b9576101008083540402835291602001916109e4565b820191906000526020600020905b8154815290600101906020018083116109c757829003601f168201915b5050505050905060006109f561071f565b90506000815103610a0a578192505050610a6e565b600082511115610a3f578082604051602001610a27929190611757565b60405160208183030381529060405292505050610a6e565b80610a4985610da7565b604051602001610a5a929190611757565b604051602081830303815290604052925050505b919050565b6000610a7e82610d35565b610abd576040517f08c379a0000000000000000000000000000000000000000000000000000000008152600401610ab4906117c7565b60405180910390fd5b6000610ac88361066e565b90508073ffffffffffffffffffffffffffffffffffffffff168473ffffffffffffffffffffffffffffffffffffffff161491505092915050565b600073ffffffffffffffffffffffffffffffffffffffff168273ffffffffffffffffffffffffffffffffffffffff1603610b71576040517f08c379a0000000000000000000000000000000000000000000000000000000008152600401610b6890611859565b60405180910390fd5b8273ffffffffffffffffffffffffffffffffffffffff16610b918261066e565b73ffffffffffffffffffffffffffffffffffffffff1614610be7576040517f08c379a0000000000000000000000000000000000000000000000000000000008152600401610bde906118eb565b60405180910390fd5b610c2e600460008573ffffffffffffffffffffffffffffffffffffffff1673ffffffffffffffffffffffffffffffffffffffff168152602001908152602001600020610f19565b610c75600460008473ffffffffffffffffffffffffffffffffffffffff1673ffffffffffffffffffffffffffffffffffffffff168152602001908152602001600020610f3c565b816003600083815260200190815260200160002060006101000a81548173ffffffffffffffffffffffffffffffffffffffff021916908373ffffffffffffffffffffffffffffffffffffffff160217905550808273ffffffffffffffffffffffffffffffffffffffff168473ffffffffffffffffffffffffffffffffffffffff167fddf252ad1be2c89b69c2b068fc378daa952ba7f163c4a11628f55a4df523b3ef60405160405180910390a4505050565b600081600001549050919050565b6000806003600084815260200190815260200160002060009054906101000a900473ffffffffffffffffffffffffffffffffffffffff169050600073ffffffffffffffffffffffffffffffffffffffff168173ffffffffffffffffffffffffffffffffffffffff161415915050919050565b606060008203610dee576040518060400160405280600181526020017f30000000000000000000000000000000000000000000000000000000000000008152509050610f14565b600082905060005b60008214610e20578080610e099061193a565b915050600a82610e1991906119b1565b9150610df6565b60008167ffffffffffffffff811115610e3c57610e3b6119e2565b5b6040519080825280601f01601f191660200182016040528015610e6e5781602001600182028036833780820191505090505b5090506000600183610e809190611a11565b90508593505b60008414610f0c57600a84610e9b9190611a45565b6030610ea79190611a76565b60f81b828280610eb690611acc565b935081518110610ec957610ec861155c565b5b60200101907effffffffffffffffffffffffffffffffffffffffffffffffffffffffffffff1916908160001a905350600a84610f0591906119b1565b9350610e86565b819450505050505b919050565b610f3160018260000154610f5f90919063ffffffff16565b816000018190555050565b610f5460018260000154610fbe90919063ffffffff16565b816000018190555050565b600082821115610fa4576040517f08c379a0000000000000000000000000000000000000000000000000000000008152600401610f9b90611b41565b60405180910390fd5b60008284610fb29190611a11565b90508091505092915050565b6000808284610fcd9190611a76565b905083811015611012576040517f08c379a000000000000000000000000000000000000000000000000000000000815260040161100990611bad565b60405180910390fd5b8091505092915050565b600080fd5b60007fffffffff0000000000000000000000000000000000000000000000000000000082169050919050565b61105681611021565b811461106157600080fd5b50565b6000813590506110738161104d565b92915050565b60006020828403121561108f5761108e61101c565b5b600061109d84828501611064565b91505092915050565b60008115159050919050565b6110bb816110a6565b82525050565b60006020820190506110d660008301846110b2565b92915050565b600081519050919050565b600082825260208201905092915050565b60005b838110156111165780820151818401526020810190506110fb565b83811115611125576000848401525b50505050565b6000601f19601f8301169050919050565b6000611147826110dc565b61115181856110e7565b93506111618185602086016110f8565b61116a8161112b565b840191505092915050565b6000602082019050818103600083015261118f818461113c565b905092915050565b600073ffffffffffffffffffffffffffffffffffffffff82169050919050565b60006111c282611197565b9050919050565b6111d2816111b7565b81146111dd57600080fd5b50565b6000813590506111ef816111c9565b92915050565b6000819050919050565b611208816111f5565b811461121357600080fd5b50565b600081359050611225816111ff565b92915050565b600080604083850312156112425761124161101c565b5b6000611250858286016111e0565b925050602061126185828601611216565b9150509250929050565b611274816111f5565b82525050565b600060208201905061128f600083018461126b565b92915050565b6000806000606084860312156112ae576112ad61101c565b5b60006112bc868287016111e0565b93505060206112cd868287016111e0565b92505060406112de86828701611216565b9150509250925092565b6000602082840312156112fe576112fd61101c565b5b600061130c84828501611216565b91505092915050565b61131e816111b7565b82525050565b60006020820190506113396000830184611315565b92915050565b6000602082840312156113555761135461101c565b5b6000611363848285016111e0565b91505092915050565b7f4e487b7100000000000000000000000000000000000000000000000000000000600052602260045260246000fd5b600060028204905060018216806113b357607f821691505b6020821081036113c6576113c561136c565b5b50919050565b7f4572726f72202d20617070726f76616c20746f2063757272656e74206f776e6560008201527f7200000000000000000000000000000000000000000000000000000000000000602082015250565b60006114286021836110e7565b9150611433826113cc565b604082019050919050565b600060208201905081810360008301526114578161141b565b9050919050565b7f43757272656e742063616c6c6572206973206e6f7420746865206f776e65722060008201527f6f662074686520746f6b656e0000000000000000000000000000000000000000602082015250565b60006114ba602c836110e7565b91506114c58261145e565b604082019050919050565b600060208201905081810360008301526114e9816114ad565b9050919050565b7f6f776e657220696e646578206f7574206f6620626f756e640000000000000000600082015250565b60006115266018836110e7565b9150611531826114f0565b602082019050919050565b6000602082019050818103600083015261155581611519565b9050919050565b7f4e487b7100000000000000000000000000000000000000000000000000000000600052603260045260246000fd5b7f676c6f62616c20696e646578206973206f7574206f6620626f756e6400000000600082015250565b60006115c1601c836110e7565b91506115cc8261158b565b602082019050919050565b600060208201905081810360008301526115f0816115b4565b9050919050565b7f6f776e657220717565727920666f72206e6f6e2d6578697374656e7420746f6b60008201527f656e000000000000000000000000000000000000000000000000000000000000602082015250565b60006116536022836110e7565b915061165e826115f7565b604082019050919050565b6000602082019050818103600083015261168281611646565b9050919050565b7f4552433732314d657461646174613a2055524920717565727920666f72206e6f60008201527f6e6578697374656e7420746f6b656e0000000000000000000000000000000000602082015250565b60006116e5602f836110e7565b91506116f082611689565b604082019050919050565b60006020820190508181036000830152611714816116d8565b9050919050565b600081905092915050565b6000611731826110dc565b61173b818561171b565b935061174b8185602086016110f8565b80840191505092915050565b60006117638285611726565b915061176f8284611726565b91508190509392505050565b7f746f6b656e20646f6573206e6f74206578697473000000000000000000000000600082015250565b60006117b16014836110e7565b91506117bc8261177b565b602082019050919050565b600060208201905081810360008301526117e0816117a4565b9050919050565b7f4572726f72202d20455243373231205472617366657220746f20746865207a6560008201527f726f206164647265737300000000000000000000000000000000000000000000602082015250565b6000611843602a836110e7565b915061184e826117e7565b604082019050919050565b6000602082019050818103600083015261187281611836565b9050919050565b7f547279696e6720746f207472616e73666572206120746f6b656e20746865206160008201527f64647265737320646f6573206e6f74206f776e00000000000000000000000000602082015250565b60006118d56033836110e7565b91506118e082611879565b604082019050919050565b60006020820190508181036000830152611904816118c8565b9050919050565b7f4e487b7100000000000000000000000000000000000000000000000000000000600052601160045260246000fd5b6000611945826111f5565b91507fffffffffffffffffffffffffffffffffffffffffffffffffffffffffffffffff82036119775761197661190b565b5b600182019050919050565b7f4e487b7100000000000000000000000000000000000000000000000000000000600052601260045260246000fd5b60006119bc826111f5565b91506119c7836111f5565b9250826119d7576119d6611982565b5b828204905092915050565b7f4e487b7100000000000000000000000000000000000000000000000000000000600052604160045260246000fd5b6000611a1c826111f5565b9150611a27836111f5565b925082821015611a3a57611a3961190b565b5b828203905092915050565b6000611a50826111f5565b9150611a5b836111f5565b925082611a6b57611a6a611982565b5b828206905092915050565b6000611a81826111f5565b9150611a8c836111f5565b9250827fffffffffffffffffffffffffffffffffffffffffffffffffffffffffffffffff03821115611ac157611ac061190b565b5b828201905092915050565b6000611ad7826111f5565b915060008203611aea57611ae961190b565b5b600182039050919050565b7f536166654d6174683a205375627472616374696f6e204f766572666c6f770000600082015250565b6000611b2b601e836110e7565b9150611b3682611af5565b602082019050919050565b60006020820190508181036000830152611b5a81611b1e565b9050919050565b7f536166654d6174683a204164646974696f6e204f766572666c6f770000000000600082015250565b6000611b97601b836110e7565b9150611ba282611b61565b602082019050919050565b60006020820190508181036000830152611bc681611b8a565b905091905056fea26469706673582212202c504ea221714864c7c6812dd03389e1cc7d2194ebd4cc614e999698577d25d364736f6c634300080d0033",
  "immutableReferences": {},
  "source": "// SPDX-License-Identifier: MIT\npragma solidity >=0.4.22 <0.9.0;\n\nimport \"./ERC721Metadata.sol\";\nimport \"./ERC721Enumerable.sol\";\n\ncontract ERC721Connector is ERC721Metadata, ERC721Enumerable {\n    constructor(string memory name, string memory symbol)\n        ERC721Metadata(name, symbol)\n    {}\n}\n",
  "sourcePath": "/Users/amaz/Work/amazonyte/contract/contracts/ERC721Connector.sol",
  "compiler": {
    "name": "solc",
    "version": "0.8.13+commit.abaa5c0e.Emscripten.clang"
  },
  "schemaVersion": "3.4.7",
  "updatedAt": "2022-06-11T17:11:42.658Z",
  "devdoc": {
    "kind": "dev",
    "methods": {
      "baseURI()": {
        "details": "Returns the base URI set via {_setBaseURI}. This will be automatically added as a prefix in {tokenURI} to each token's URI, or to the token ID if no specific URI is set for that token ID."
      },
      "tokenURI(uint256)": {
        "details": "See {IERC721Metadata-tokenURI}."
      },
      "totalSupply()": {
        "returns": {
          "_0": "A count of valid NFTs tracked by this contract, where each one of  them has an assigned and queryable owner not equal to the zero address"
        }
      }
    },
    "version": 1
  },
  "userdoc": {
    "kind": "user",
    "methods": {
      "totalSupply()": {
        "notice": "Count NFTs tracked by this contract"
      }
    },
    "version": 1
  }
}