{
  "contractName": "ERC721Enumerable",
  "abi": [
    {
      "inputs": [],
      "stateMutability": "nonpayable",
      "type": "constructor"
    },
    {
      "anonymous": false,
      "inputs": [
        {
          "indexed": true,
          "internalType": "address",
          "name": "_owner",
          "type": "address"
        },
        {
          "indexed": true,
          "internalType": "address",
          "name": "_approved",
          "type": "address"
        },
        {
          "indexed": true,
          "internalType": "uint256",
          "name": "_tokenId",
          "type": "uint256"
        }
      ],
      "name": "Approval",
      "type": "event"
    },
    {
      "anonymous": false,
      "inputs": [
        {
          "indexed": true,
          "internalType": "address",
          "name": "_from",
          "type": "address"
        },
        {
          "indexed": true,
          "internalType": "address",
          "name": "_to",
          "type": "address"
        },
        {
          "indexed": true,
          "internalType": "uint256",
          "name": "_tokenId",
          "type": "uint256"
        }
      ],
      "name": "Transfer",
      "type": "event"
    },
    {
      "inputs": [
        {
          "internalType": "address",
          "name": "_to",
          "type": "address"
        },
        {
          "internalType": "uint256",
          "name": "tokenId",
          "type": "uint256"
        }
      ],
      "name": "approve",
      "outputs": [],
      "stateMutability": "nonpayable",
      "type": "function"
    },
    {
      "inputs": [
        {
          "internalType": "address",
          "name": "_owner",
          "type": "address"
        }
      ],
      "name": "balanceOf",
      "outputs": [
        {
          "internalType": "uint256",
          "name": "",
          "type": "uint256"
        }
      ],
      "stateMutability": "view",
      "type": "function"
    },
    {
      "inputs": [],
      "name": "baseURI",
      "outputs": [
        {
          "internalType": "string",
          "name": "",
          "type": "string"
        }
      ],
      "stateMutability": "view",
      "type": "function"
    },
    {
      "inputs": [
        {
          "internalType": "uint256",
          "name": "_tokenId",
          "type": "uint256"
        }
      ],
      "name": "ownerOf",
      "outputs": [
        {
          "internalType": "address",
          "name": "",
          "type": "address"
        }
      ],
      "stateMutability": "view",
      "type": "function"
    },
    {
      "inputs": [
        {
          "internalType": "bytes4",
          "name": "interfaceId",
          "type": "bytes4"
        }
      ],
      "name": "supportsInterface",
      "outputs": [
        {
          "internalType": "bool",
          "name": "",
          "type": "bool"
        }
      ],
      "stateMutability": "view",
      "type": "function"
    },
    {
      "inputs": [
        {
          "internalType": "uint256",
          "name": "tokenId",
          "type": "uint256"
        }
      ],
      "name": "tokenURI",
      "outputs": [
        {
          "internalType": "string",
          "name": "",
          "type": "string"
        }
      ],
      "stateMutability": "view",
      "type": "function"
    },
    {
      "inputs": [
        {
          "internalType": "address",
          "name": "_from",
          "type": "address"
        },
        {
          "internalType": "address",
          "name": "_to",
          "type": "address"
        },
        {
          "internalType": "uint256",
          "name": "_tokenId",
          "type": "uint256"
        }
      ],
      "name": "transferFrom",
      "outputs": [],
      "stateMutability": "nonpayable",
      "type": "function"
    },
    {
      "inputs": [
        {
          "internalType": "uint256",
          "name": "index",
          "type": "uint256"
        }
      ],
      "name": "tokenByIndex",
      "outputs": [
        {
          "internalType": "uint256",
          "name": "",
          "type": "uint256"
        }
      ],
      "stateMutability": "view",
      "type": "function"
    },
    {
      "inputs": [
        {
          "internalType": "address",
          "name": "owner",
          "type": "address"
        },
        {
          "internalType": "uint256",
          "name": "index",
          "type": "uint256"
        }
      ],
      "name": "tokenOfOwnerByIndex",
      "outputs": [
        {
          "internalType": "uint256",
          "name": "",
          "type": "uint256"
        }
      ],
      "stateMutability": "view",
      "type": "function"
    },
    {
      "inputs": [],
      "name": "totalSupply",
      "outputs": [
        {
          "internalType": "uint256",
          "name": "",
          "type": "uint256"
        }
      ],
      "stateMutability": "view",
      "type": "function"
    }
  ],
  "bytecode": "0x60806040523480156200001157600080fd5b50620000437f01ffc9a7a5cef8baa21ed3c5c0d7e23accb804b619e9333b597f47a0d84076e26200013360201b60201c565b620000b87f22c82707ba960a14c7592ffb6b8cfaa073fed0048a84cc7fa41f6b5bd8e7f2e47f3a6eb71757dfc6e784c1459d26270140c2c147d95ca985c80026fc5301c3eca17f8a7e378434598edc36d108689a030cbc9d7d465de4f74c71bae1028eed6a881b18186200013360201b60201c565b6200012d7f8230223f691b981717299fae9549350a0d894555723531f02108b1f522c1a7977f6da5e1284143cdd2d15038a59bde3be031250f00291d64494c12d967b3a4e0c37fc53637662700e6c65104059db8bba34439e0c32483ab7c34e3ccae52c739549518186200013360201b60201c565b6200028d565b63ffffffff60e01b817bffffffffffffffffffffffffffffffffffffffffffffffffffffffff1916036200019e576040517f08c379a000000000000000000000000000000000000000000000000000000000815260040162000195906200026b565b60405180910390fd5b6001600080837bffffffffffffffffffffffffffffffffffffffffffffffffffffffff19167bffffffffffffffffffffffffffffffffffffffffffffffffffffffff1916815260200190815260200160002060006101000a81548160ff02191690831515021790555050565b600082825260208201905092915050565b7f696e76616c696420696e74657266616365207265717565737400000000000000600082015250565b6000620002536019836200020a565b915062000260826200021b565b602082019050919050565b60006020820190508181036000830152620002868162000244565b9050919050565b611a8d806200029d6000396000f3fe608060405234801561001057600080fd5b506004361061009e5760003560e01c80634f6ccce7116100665780634f6ccce7146101595780636352211e146101895780636c0360eb146101b957806370a08231146101d7578063c87b56dd146102075761009e565b806301ffc9a7146100a3578063095ea7b3146100d357806318160ddd146100ef57806323b872dd1461010d5780632f745c5914610129575b600080fd5b6100bd60048036038101906100b89190610f03565b610237565b6040516100ca9190610f4b565b60405180910390f35b6100ed60048036038101906100e89190610ffa565b61029e565b005b6100f7610439565b6040516101049190611049565b60405180910390f35b61012760048036038101906101229190611064565b610446565b005b610143600480360381019061013e9190610ffa565b610469565b6040516101509190611049565b60405180910390f35b610173600480360381019061016e91906110b7565b610519565b6040516101809190611049565b60405180910390f35b6101a3600480360381019061019e91906110b7565b61058a565b6040516101b091906110f3565b60405180910390f35b6101c161063b565b6040516101ce91906111a7565b60405180910390f35b6101f160048036038101906101ec91906111c9565b6106cd565b6040516101fe9190611049565b60405180910390f35b610221600480360381019061021c91906110b7565b61078b565b60405161022e91906111a7565b60405180910390f35b6000806000837bffffffffffffffffffffffffffffffffffffffffffffffffffffffff19167bffffffffffffffffffffffffffffffffffffffffffffffffffffffff1916815260200190815260200160002060009054906101000a900460ff169050919050565b60006102a98261058a565b90508073ffffffffffffffffffffffffffffffffffffffff168373ffffffffffffffffffffffffffffffffffffffff1603610319576040517f08c379a000000000000000000000000000000000000000000000000000000000815260040161031090611268565b60405180910390fd5b8073ffffffffffffffffffffffffffffffffffffffff163373ffffffffffffffffffffffffffffffffffffffff1614610387576040517f08c379a000000000000000000000000000000000000000000000000000000000815260040161037e906112fa565b60405180910390fd5b826003600084815260200190815260200160002060006101000a81548173ffffffffffffffffffffffffffffffffffffffff021916908373ffffffffffffffffffffffffffffffffffffffff160217905550818373ffffffffffffffffffffffffffffffffffffffff168273ffffffffffffffffffffffffffffffffffffffff167f8c5be1e5ebec7d5bd14f71427d1e84f3dd0314c0f7b2291e5b200ac8c7c3b92560405160405180910390a4505050565b6000600680549050905090565b61045033826108fd565b61045957600080fd5b61046483838361098c565b505050565b6000610474836106cd565b82106104b5576040517f08c379a00000000000000000000000000000000000000000000000000000000081526004016104ac90611366565b60405180910390fd5b600860008473ffffffffffffffffffffffffffffffffffffffff1673ffffffffffffffffffffffffffffffffffffffff168152602001908152602001600020828154811061050657610505611386565b5b9060005260206000200154905092915050565b6000610523610439565b8210610564576040517f08c379a000000000000000000000000000000000000000000000000000000000815260040161055b90611401565b60405180910390fd5b6006828154811061057857610577611386565b5b90600052602060002001549050919050565b6000806001600084815260200190815260200160002060009054906101000a900473ffffffffffffffffffffffffffffffffffffffff169050600073ffffffffffffffffffffffffffffffffffffffff168173ffffffffffffffffffffffffffffffffffffffff1603610632576040517f08c379a000000000000000000000000000000000000000000000000000000000815260040161062990611493565b60405180910390fd5b80915050919050565b60606005805461064a906114e2565b80601f0160208091040260200160405190810160405280929190818152602001828054610676906114e2565b80156106c35780601f10610698576101008083540402835291602001916106c3565b820191906000526020600020905b8154815290600101906020018083116106a657829003601f168201915b5050505050905090565b60008073ffffffffffffffffffffffffffffffffffffffff168273ffffffffffffffffffffffffffffffffffffffff160361073d576040517f08c379a000000000000000000000000000000000000000000000000000000000815260040161073490611493565b60405180910390fd5b610784600260008473ffffffffffffffffffffffffffffffffffffffff1673ffffffffffffffffffffffffffffffffffffffff168152602001908152602001600020610bb1565b9050919050565b606061079682610bbf565b6107d5576040517f08c379a00000000000000000000000000000000000000000000000000000000081526004016107cc90611585565b60405180910390fd5b60006004600084815260200190815260200160002080546107f5906114e2565b80601f0160208091040260200160405190810160405280929190818152602001828054610821906114e2565b801561086e5780601f106108435761010080835404028352916020019161086e565b820191906000526020600020905b81548152906001019060200180831161085157829003601f168201915b50505050509050600061087f61063b565b905060008151036108945781925050506108f8565b6000825111156108c95780826040516020016108b19291906115e1565b604051602081830303815290604052925050506108f8565b806108d385610c31565b6040516020016108e49291906115e1565b604051602081830303815290604052925050505b919050565b600061090882610bbf565b610947576040517f08c379a000000000000000000000000000000000000000000000000000000000815260040161093e90611651565b60405180910390fd5b60006109528361058a565b90508073ffffffffffffffffffffffffffffffffffffffff168473ffffffffffffffffffffffffffffffffffffffff161491505092915050565b600073ffffffffffffffffffffffffffffffffffffffff168273ffffffffffffffffffffffffffffffffffffffff16036109fb576040517f08c379a00000000000000000000000000000000000000000000000000000000081526004016109f2906116e3565b60405180910390fd5b8273ffffffffffffffffffffffffffffffffffffffff16610a1b8261058a565b73ffffffffffffffffffffffffffffffffffffffff1614610a71576040517f08c379a0000000000000000000000000000000000000000000000000000000008152600401610a6890611775565b60405180910390fd5b610ab8600260008573ffffffffffffffffffffffffffffffffffffffff1673ffffffffffffffffffffffffffffffffffffffff168152602001908152602001600020610da3565b610aff600260008473ffffffffffffffffffffffffffffffffffffffff1673ffffffffffffffffffffffffffffffffffffffff168152602001908152602001600020610dc6565b816001600083815260200190815260200160002060006101000a81548173ffffffffffffffffffffffffffffffffffffffff021916908373ffffffffffffffffffffffffffffffffffffffff160217905550808273ffffffffffffffffffffffffffffffffffffffff168473ffffffffffffffffffffffffffffffffffffffff167fddf252ad1be2c89b69c2b068fc378daa952ba7f163c4a11628f55a4df523b3ef60405160405180910390a4505050565b600081600001549050919050565b6000806001600084815260200190815260200160002060009054906101000a900473ffffffffffffffffffffffffffffffffffffffff169050600073ffffffffffffffffffffffffffffffffffffffff168173ffffffffffffffffffffffffffffffffffffffff161415915050919050565b606060008203610c78576040518060400160405280600181526020017f30000000000000000000000000000000000000000000000000000000000000008152509050610d9e565b600082905060005b60008214610caa578080610c93906117c4565b915050600a82610ca3919061183b565b9150610c80565b60008167ffffffffffffffff811115610cc657610cc561186c565b5b6040519080825280601f01601f191660200182016040528015610cf85781602001600182028036833780820191505090505b5090506000600183610d0a919061189b565b90508593505b60008414610d9657600a84610d2591906118cf565b6030610d319190611900565b60f81b828280610d4090611956565b935081518110610d5357610d52611386565b5b60200101907effffffffffffffffffffffffffffffffffffffffffffffffffffffffffffff1916908160001a905350600a84610d8f919061183b565b9350610d10565b819450505050505b919050565b610dbb60018260000154610de990919063ffffffff16565b816000018190555050565b610dde60018260000154610e4890919063ffffffff16565b816000018190555050565b600082821115610e2e576040517f08c379a0000000000000000000000000000000000000000000000000000000008152600401610e25906119cb565b60405180910390fd5b60008284610e3c919061189b565b90508091505092915050565b6000808284610e579190611900565b905083811015610e9c576040517f08c379a0000000000000000000000000000000000000000000000000000000008152600401610e9390611a37565b60405180910390fd5b8091505092915050565b600080fd5b60007fffffffff0000000000000000000000000000000000000000000000000000000082169050919050565b610ee081610eab565b8114610eeb57600080fd5b50565b600081359050610efd81610ed7565b92915050565b600060208284031215610f1957610f18610ea6565b5b6000610f2784828501610eee565b91505092915050565b60008115159050919050565b610f4581610f30565b82525050565b6000602082019050610f606000830184610f3c565b92915050565b600073ffffffffffffffffffffffffffffffffffffffff82169050919050565b6000610f9182610f66565b9050919050565b610fa181610f86565b8114610fac57600080fd5b50565b600081359050610fbe81610f98565b92915050565b6000819050919050565b610fd781610fc4565b8114610fe257600080fd5b50565b600081359050610ff481610fce565b92915050565b6000806040838503121561101157611010610ea6565b5b600061101f85828601610faf565b925050602061103085828601610fe5565b9150509250929050565b61104381610fc4565b82525050565b600060208201905061105e600083018461103a565b92915050565b60008060006060848603121561107d5761107c610ea6565b5b600061108b86828701610faf565b935050602061109c86828701610faf565b92505060406110ad86828701610fe5565b9150509250925092565b6000602082840312156110cd576110cc610ea6565b5b60006110db84828501610fe5565b91505092915050565b6110ed81610f86565b82525050565b600060208201905061110860008301846110e4565b92915050565b600081519050919050565b600082825260208201905092915050565b60005b8381101561114857808201518184015260208101905061112d565b83811115611157576000848401525b50505050565b6000601f19601f8301169050919050565b60006111798261110e565b6111838185611119565b935061119381856020860161112a565b61119c8161115d565b840191505092915050565b600060208201905081810360008301526111c1818461116e565b905092915050565b6000602082840312156111df576111de610ea6565b5b60006111ed84828501610faf565b91505092915050565b7f4572726f72202d20617070726f76616c20746f2063757272656e74206f776e6560008201527f7200000000000000000000000000000000000000000000000000000000000000602082015250565b6000611252602183611119565b915061125d826111f6565b604082019050919050565b6000602082019050818103600083015261128181611245565b9050919050565b7f43757272656e742063616c6c6572206973206e6f7420746865206f776e65722060008201527f6f662074686520746f6b656e0000000000000000000000000000000000000000602082015250565b60006112e4602c83611119565b91506112ef82611288565b604082019050919050565b60006020820190508181036000830152611313816112d7565b9050919050565b7f6f776e657220696e646578206f7574206f6620626f756e640000000000000000600082015250565b6000611350601883611119565b915061135b8261131a565b602082019050919050565b6000602082019050818103600083015261137f81611343565b9050919050565b7f4e487b7100000000000000000000000000000000000000000000000000000000600052603260045260246000fd5b7f676c6f62616c20696e646578206973206f7574206f6620626f756e6400000000600082015250565b60006113eb601c83611119565b91506113f6826113b5565b602082019050919050565b6000602082019050818103600083015261141a816113de565b9050919050565b7f6f776e657220717565727920666f72206e6f6e2d6578697374656e7420746f6b60008201527f656e000000000000000000000000000000000000000000000000000000000000602082015250565b600061147d602283611119565b915061148882611421565b604082019050919050565b600060208201905081810360008301526114ac81611470565b9050919050565b7f4e487b7100000000000000000000000000000000000000000000000000000000600052602260045260246000fd5b600060028204905060018216806114fa57607f821691505b60208210810361150d5761150c6114b3565b5b50919050565b7f4552433732314d657461646174613a2055524920717565727920666f72206e6f60008201527f6e6578697374656e7420746f6b656e0000000000000000000000000000000000602082015250565b600061156f602f83611119565b915061157a82611513565b604082019050919050565b6000602082019050818103600083015261159e81611562565b9050919050565b600081905092915050565b60006115bb8261110e565b6115c581856115a5565b93506115d581856020860161112a565b80840191505092915050565b60006115ed82856115b0565b91506115f982846115b0565b91508190509392505050565b7f746f6b656e20646f6573206e6f74206578697473000000000000000000000000600082015250565b600061163b601483611119565b915061164682611605565b602082019050919050565b6000602082019050818103600083015261166a8161162e565b9050919050565b7f4572726f72202d20455243373231205472617366657220746f20746865207a6560008201527f726f206164647265737300000000000000000000000000000000000000000000602082015250565b60006116cd602a83611119565b91506116d882611671565b604082019050919050565b600060208201905081810360008301526116fc816116c0565b9050919050565b7f547279696e6720746f207472616e73666572206120746f6b656e20746865206160008201527f64647265737320646f6573206e6f74206f776e00000000000000000000000000602082015250565b600061175f603383611119565b915061176a82611703565b604082019050919050565b6000602082019050818103600083015261178e81611752565b9050919050565b7f4e487b7100000000000000000000000000000000000000000000000000000000600052601160045260246000fd5b60006117cf82610fc4565b91507fffffffffffffffffffffffffffffffffffffffffffffffffffffffffffffffff820361180157611800611795565b5b600182019050919050565b7f4e487b7100000000000000000000000000000000000000000000000000000000600052601260045260246000fd5b600061184682610fc4565b915061185183610fc4565b9250826118615761186061180c565b5b828204905092915050565b7f4e487b7100000000000000000000000000000000000000000000000000000000600052604160045260246000fd5b60006118a682610fc4565b91506118b183610fc4565b9250828210156118c4576118c3611795565b5b828203905092915050565b60006118da82610fc4565b91506118e583610fc4565b9250826118f5576118f461180c565b5b828206905092915050565b600061190b82610fc4565b915061191683610fc4565b9250827fffffffffffffffffffffffffffffffffffffffffffffffffffffffffffffffff0382111561194b5761194a611795565b5b828201905092915050565b600061196182610fc4565b91506000820361197457611973611795565b5b600182039050919050565b7f536166654d6174683a205375627472616374696f6e204f766572666c6f770000600082015250565b60006119b5601e83611119565b91506119c08261197f565b602082019050919050565b600060208201905081810360008301526119e4816119a8565b9050919050565b7f536166654d6174683a204164646974696f6e204f766572666c6f770000000000600082015250565b6000611a21601b83611119565b9150611a2c826119eb565b602082019050919050565b60006020820190508181036000830152611a5081611a14565b905091905056fea26469706673582212204c80502cd8e1143167949f106c14addcc6c5f2fc6c975c2edbf313371d87815764736f6c634300080d0033",
  "immutableReferences": {},
  "source": "// SPDX-License-Identifier: MIT\npragma solidity >=0.4.22 <0.9.0;\n\nimport \"./ERC721.sol\";\nimport \"./interfaces/IERC721Enumerable.sol\";\n\ncontract ERC721Enumerable is IERC721Enumerable, ERC721 {\n    uint256[] private _allTokens;\n    // maaping from tokenid to position in _allTokens array\n    mapping(uint256 => uint256) private _allTokensIndex;\n    // mapping of owner to list of all owner token ids\n    mapping(address => uint256[]) private _ownedTokens;\n    // mapping from tokenId to index of the owner token list\n    mapping(uint256 => uint256) private _ownedTokensIndex;\n\n    constructor() {\n        _registerInterface(\n            bytes4(\n                keccak256(\"totalSupply(bytes4)\") ^\n                    keccak256(\"tokenByIndex(bytes4)\") ^\n                    keccak256(\"tokenOfOwnerByIndex(bytes4)\")\n            )\n        );\n    }\n\n    function _mint(address to, uint256 tokenId) internal override(ERC721) {\n        super._mint(to, tokenId);\n        // 1. add token to the owner list\n        // 2. all tokens to our total supply\n        _addTokensToAllTokenEnumeration(tokenId);\n        _addTokensToOwnerEnumeration(to, tokenId);\n    }\n\n    //  add tokens to token array and set position\n    function _addTokensToAllTokenEnumeration(uint256 tokenId) private {\n        _allTokensIndex[tokenId] = _allTokens.length;\n        _allTokens.push(tokenId);\n    }\n\n    function _addTokensToOwnerEnumeration(address to, uint256 tokenId) private {\n        // 1. add address and tokenId to he _ownedTokens\n        // 2. _ownedTokensIndex tokenId set to address of ownedTokens position\n        // 3. execute the function with minting\n        _ownedTokensIndex[tokenId] = _ownedTokens[to].length;\n        _ownedTokens[to].push(tokenId);\n    }\n\n    function tokenByIndex(uint256 index)\n        public\n        view\n        override\n        returns (uint256)\n    {\n        require(index < totalSupply(), \"global index is out of bound\");\n        return _allTokens[index];\n    }\n\n    function tokenOfOwnerByIndex(address owner, uint256 index)\n        public\n        view\n        override\n        returns (uint256)\n    {\n        require(index < balanceOf(owner), \"owner index out of bound\");\n        return _ownedTokens[owner][index];\n    }\n\n    /// @notice Count NFTs tracked by this contract\n    /// @return A count of valid NFTs tracked by this contract, where each one of\n    ///  them has an assigned and queryable owner not equal to the zero address\n    function totalSupply() public view override returns (uint256) {\n        return _allTokens.length;\n    }\n}\n",
  "sourcePath": "/Users/amaz/Work/amazonyte/contract/contracts/ERC721Enumerable.sol",
  "compiler": {
    "name": "solc",
    "version": "0.8.13+commit.abaa5c0e.Emscripten.clang"
  },
  "schemaVersion": "3.4.7",
  "updatedAt": "2022-06-11T17:11:42.666Z",
  "devdoc": {
    "kind": "dev",
    "methods": {
      "baseURI()": {
        "details": "Returns the base URI set via {_setBaseURI}. This will be automatically added as a prefix in {tokenURI} to each token's URI, or to the token ID if no specific URI is set for that token ID."
      },
      "tokenURI(uint256)": {
        "details": "See {IERC721Metadata-tokenURI}."
      },
      "totalSupply()": {
        "returns": {
          "_0": "A count of valid NFTs tracked by this contract, where each one of  them has an assigned and queryable owner not equal to the zero address"
        }
      }
    },
    "version": 1
  },
  "userdoc": {
    "kind": "user",
    "methods": {
      "totalSupply()": {
        "notice": "Count NFTs tracked by this contract"
      }
    },
    "version": 1
  }
}